{
  "address": "0x30243E2C304070B22Ed66ab54A08fb0f5ca56382",
  "abi": [
    {
      "inputs": [],
      "stateMutability": "nonpayable",
      "type": "constructor"
    },
    {
      "inputs": [],
      "name": "ERC1167FailedCreateClone",
      "type": "error"
    },
    {
      "inputs": [
        {
          "internalType": "address",
          "name": "owner",
          "type": "address"
        }
      ],
      "name": "OwnableInvalidOwner",
      "type": "error"
    },
    {
      "inputs": [
        {
          "internalType": "address",
          "name": "account",
          "type": "address"
        }
      ],
      "name": "OwnableUnauthorizedAccount",
      "type": "error"
    },
    {
      "inputs": [],
      "name": "UnsupportedOperation",
      "type": "error"
    },
    {
      "anonymous": false,
      "inputs": [
        {
          "indexed": true,
          "internalType": "address",
          "name": "previousOwner",
          "type": "address"
        },
        {
          "indexed": true,
          "internalType": "address",
          "name": "newOwner",
          "type": "address"
        }
      ],
      "name": "OwnershipTransferred",
      "type": "event"
    },
    {
      "inputs": [
        {
          "internalType": "enum MDType",
          "name": "mdType",
          "type": "uint8"
        },
        {
          "internalType": "string",
          "name": "projectId",
          "type": "string"
        }
      ],
      "name": "deploy",
      "outputs": [
        {
          "internalType": "address",
          "name": "instance",
          "type": "address"
        }
      ],
      "stateMutability": "nonpayable",
      "type": "function"
    },
    {
      "inputs": [
        {
          "internalType": "string",
          "name": "projectId",
          "type": "string"
        }
      ],
      "name": "deployments",
      "outputs": [
        {
          "internalType": "address",
          "name": "deployment",
          "type": "address"
        }
      ],
      "stateMutability": "view",
      "type": "function"
    },
    {
      "inputs": [
        {
          "internalType": "enum MDType",
          "name": "mdType",
          "type": "uint8"
        }
      ],
      "name": "implementations",
      "outputs": [
        {
          "internalType": "address",
          "name": "implementation",
          "type": "address"
        }
      ],
      "stateMutability": "view",
      "type": "function"
    },
    {
      "inputs": [],
      "name": "owner",
      "outputs": [
        {
          "internalType": "address",
          "name": "",
          "type": "address"
        }
      ],
      "stateMutability": "view",
      "type": "function"
    },
    {
      "inputs": [],
      "name": "renounceOwnership",
      "outputs": [],
      "stateMutability": "nonpayable",
      "type": "function"
    },
    {
      "inputs": [
        {
          "internalType": "enum MDType",
          "name": "mdType",
          "type": "uint8"
        },
        {
          "internalType": "address",
          "name": "implementation",
          "type": "address"
        }
      ],
      "name": "setImplementation",
      "outputs": [],
      "stateMutability": "nonpayable",
      "type": "function"
    },
    {
      "inputs": [
        {
          "internalType": "enum MDType",
          "name": "mdType",
          "type": "uint8"
        },
        {
          "internalType": "string",
          "name": "projectId",
          "type": "string"
        }
      ],
      "name": "simulateDeploy",
      "outputs": [
        {
          "internalType": "address",
          "name": "",
          "type": "address"
        }
      ],
      "stateMutability": "view",
      "type": "function"
    },
    {
      "inputs": [
        {
          "internalType": "address",
          "name": "newOwner",
          "type": "address"
        }
      ],
      "name": "transferOwnership",
      "outputs": [],
      "stateMutability": "nonpayable",
      "type": "function"
    },
    {
      "inputs": [],
      "name": "version",
      "outputs": [
        {
          "internalType": "string",
          "name": "",
          "type": "string"
        }
      ],
      "stateMutability": "pure",
      "type": "function"
    }
  ],
  "transactionHash": "0xc783f5ffbfe531d545e2fb24deb97c86bd0e162d9e45408cd784790b3ff45aae",
  "args": [],
  "numDeployments": 2,
  "solcInputHash": "c6765bc7339c8c0f64c72b305cfce0f4",
  "bytecode": "0x608060405234801561001057600080fd5b50338061003757604051631e4fbdf760e01b81526000600482015260240160405180910390fd5b61004081610046565b50610096565b600080546001600160a01b038381166001600160a01b0319831681178455604051919092169283917f8be0079c531659141344cd1fd0a4f28419497f9722a3daafe3b4186f6b6457e09190a35050565b61084e806100a56000396000f3fe608060405234801561001057600080fd5b50600436106100835760003560e01c806318353d761461008857806345583b7a146100b15780635429caa0146100c657806354fd4d50146100ef5780635ad3d87214610116578063715018a61461014a5780638da5cb5b14610152578063cfcf429a14610163578063f2fde38b14610176575b600080fd5b61009b610096366004610555565b610189565b6040516100a891906105d8565b60405180910390f35b6100c46100bf366004610603565b6102b3565b005b61009b6100d4366004610636565b6002602052600090815260409020546001600160a01b031681565b6040805180820182526005815264302e312e3160d81b602082015290516100a89190610658565b61009b6101243660046106bd565b80516020818301810180516001825292820191909301209152546001600160a01b031681565b6100c4610319565b6000546001600160a01b031661009b565b61009b610171366004610555565b61032d565b6100c461018436600461076e565b610409565b6000610205600260008660028111156101a4576101a4610789565b60028111156101b5576101b5610789565b815260200190815260200160002060009054906101000a90046001600160a01b031684846040516020016101ea9291906107c8565b60405160208183030381529060405280519060200120610450565b604051637ab4339d60e01b81529091506001600160a01b03821690637ab4339d90610238908690869033906004016107dc565b600060405180830381600087803b15801561025257600080fd5b505af1158015610266573d6000803e3d6000fd5b50505050806001848460405161027d929190610808565b90815260405190819003602001902080546001600160a01b03929092166001600160a01b03199092169190911790559392505050565b6102bb6104c4565b80600260008460028111156102d2576102d2610789565b60028111156102e3576102e3610789565b815260200190815260200160002060006101000a8154816001600160a01b0302191690836001600160a01b031602179055505050565b6103216104c4565b61032b60006104f1565b565b60006104016002600086600281111561034857610348610789565b600281111561035957610359610789565b815260200190815260200160002060009054906101000a90046001600160a01b0316848460405160200161038e9291906107c8565b604051602081830303815290604052805190602001203060405160388101919091526f5af43d82803e903d91602b57fd5bf3ff60248201526014810192909252733d602d80600a3d3981f3363d3d373d3d3d363d73825260588201526037600c8201206078820152605560439091012090565b949350505050565b6104116104c4565b6001600160a01b038116610444576000604051631e4fbdf760e01b815260040161043b91906105d8565b60405180910390fd5b61044d816104f1565b50565b6000763d602d80600a3d3981f3363d3d373d3d3d363d730000008360601b60e81c176000526e5af43d82803e903d91602b57fd5bf38360781b1760205281603760096000f590506001600160a01b0381166104be576040516330be1a3d60e21b815260040160405180910390fd5b92915050565b6000546001600160a01b0316331461032b573360405163118cdaa760e01b815260040161043b91906105d8565b600080546001600160a01b038381166001600160a01b0319831681178455604051919092169283917f8be0079c531659141344cd1fd0a4f28419497f9722a3daafe3b4186f6b6457e09190a35050565b80356003811061055057600080fd5b919050565b60008060006040848603121561056a57600080fd5b61057384610541565b9250602084013567ffffffffffffffff8082111561059057600080fd5b818601915086601f8301126105a457600080fd5b8135818111156105b357600080fd5b8760208285010111156105c557600080fd5b6020830194508093505050509250925092565b6001600160a01b0391909116815260200190565b80356001600160a01b038116811461055057600080fd5b6000806040838503121561061657600080fd5b61061f83610541565b915061062d602084016105ec565b90509250929050565b60006020828403121561064857600080fd5b61065182610541565b9392505050565b60006020808352835180602085015260005b818110156106865785810183015185820160400152820161066a565b506000604082860101526040601f19601f8301168501019250505092915050565b634e487b7160e01b600052604160045260246000fd5b6000602082840312156106cf57600080fd5b813567ffffffffffffffff808211156106e757600080fd5b818401915084601f8301126106fb57600080fd5b81358181111561070d5761070d6106a7565b604051601f8201601f19908116603f01168101908382118183101715610735576107356106a7565b8160405282815287602084870101111561074e57600080fd5b826020860160208301376000928101602001929092525095945050505050565b60006020828403121561078057600080fd5b610651826105ec565b634e487b7160e01b600052602160045260246000fd5b81835281816020850137506000828201602090810191909152601f909101601f19169091010190565b60208152600061040160208301848661079f565b6040815260006107f060408301858761079f565b905060018060a01b0383166020830152949350505050565b818382376000910190815291905056fea26469706673582212207f3abbbdedd97e8475794130671b45b3103a8fc15df4634696afb6765c11bb9964736f6c63430008180033",
  "devdoc": {
    "errors": {
      "ERC1167FailedCreateClone()": [
        {
          "details": "A clone instance deployment failed."
        }
      ],
      "OwnableInvalidOwner(address)": [
        {
          "details": "The owner is not a valid owner account. (eg. `address(0)`)"
        }
      ],
      "OwnableUnauthorizedAccount(address)": [
        {
          "details": "The caller account is not authorized to perform an operation."
        }
      ]
    },
    "kind": "dev",
    "methods": {
      "owner()": {
        "details": "Returns the address of the current owner."
      },
      "renounceOwnership()": {
        "details": "Leaves the contract without owner. It will not be possible to call `onlyOwner` functions. Can only be called by the current owner. NOTE: Renouncing ownership will leave the contract without an owner, thereby disabling any functionality that is only available to the owner."
      },
      "transferOwnership(address)": {
        "details": "Transfers ownership of the contract to a new account (`newOwner`). Can only be called by the current owner."
      }
    },
    "version": 1
  },
  "userdoc": {
    "kind": "user",
    "methods": {},
    "version": 1
  },
  "storageLayout": {
    "storage": [
      {
        "astId": 990,
        "contract": "src/core/MDCreate2.sol:MDCreate2",
        "label": "_owner",
        "offset": 0,
        "slot": "0",
        "type": "t_address"
      },
      {
        "astId": 3694,
        "contract": "src/core/MDCreate2.sol:MDCreate2",
        "label": "deployments",
        "offset": 0,
        "slot": "1",
        "type": "t_mapping(t_string_memory_ptr,t_address)"
      },
      {
        "astId": 3699,
        "contract": "src/core/MDCreate2.sol:MDCreate2",
        "label": "implementations",
        "offset": 0,
        "slot": "2",
        "type": "t_mapping(t_enum(MDType)3686,t_address)"
      }
    ],
    "types": {
      "t_address": {
        "encoding": "inplace",
        "label": "address",
        "numberOfBytes": "20"
      },
      "t_enum(MDType)3686": {
        "encoding": "inplace",
        "label": "enum MDType",
        "numberOfBytes": "1"
      },
      "t_mapping(t_enum(MDType)3686,t_address)": {
        "encoding": "mapping",
        "key": "t_enum(MDType)3686",
        "label": "mapping(enum MDType => address)",
        "numberOfBytes": "32",
        "value": "t_address"
      },
      "t_mapping(t_string_memory_ptr,t_address)": {
        "encoding": "mapping",
        "key": "t_string_memory_ptr",
        "label": "mapping(string => address)",
        "numberOfBytes": "32",
        "value": "t_address"
      },
      "t_string_memory_ptr": {
        "encoding": "bytes",
        "label": "string",
        "numberOfBytes": "32"
      }
    }
  }
}