{
  "address": "0xFBF614E89Ac79d738BaeF81CE6929897594b7E69",
  "abi": [
    {
      "inputs": [
        {
          "internalType": "address",
          "name": "target",
          "type": "address"
        }
      ],
      "name": "AddressEmptyCode",
      "type": "error"
    },
    {
      "inputs": [],
      "name": "ClaimPremature",
      "type": "error"
    },
    {
      "inputs": [
        {
          "internalType": "address",
          "name": "implementation",
          "type": "address"
        }
      ],
      "name": "ERC1967InvalidImplementation",
      "type": "error"
    },
    {
      "inputs": [],
      "name": "ERC1967NonPayable",
      "type": "error"
    },
    {
      "inputs": [],
      "name": "EnforcedPause",
      "type": "error"
    },
    {
      "inputs": [],
      "name": "ExpectedPause",
      "type": "error"
    },
    {
      "inputs": [],
      "name": "FailedInnerCall",
      "type": "error"
    },
    {
      "inputs": [],
      "name": "InvalidInitialization",
      "type": "error"
    },
    {
      "inputs": [],
      "name": "InvalidProof",
      "type": "error"
    },
    {
      "inputs": [],
      "name": "LeafUsed",
      "type": "error"
    },
    {
      "inputs": [],
      "name": "NotInitializing",
      "type": "error"
    },
    {
      "inputs": [
        {
          "internalType": "address",
          "name": "owner",
          "type": "address"
        }
      ],
      "name": "OwnableInvalidOwner",
      "type": "error"
    },
    {
      "inputs": [
        {
          "internalType": "address",
          "name": "account",
          "type": "address"
        }
      ],
      "name": "OwnableUnauthorizedAccount",
      "type": "error"
    },
    {
      "inputs": [],
      "name": "ReentrancyGuardReentrantCall",
      "type": "error"
    },
    {
      "inputs": [],
      "name": "RootExpired",
      "type": "error"
    },
    {
      "inputs": [],
      "name": "RootIsLocked",
      "type": "error"
    },
    {
      "inputs": [],
      "name": "RootNotLocked",
      "type": "error"
    },
    {
      "inputs": [],
      "name": "TimeInactive",
      "type": "error"
    },
    {
      "inputs": [],
      "name": "UUPSUnauthorizedCallContext",
      "type": "error"
    },
    {
      "inputs": [
        {
          "internalType": "bytes32",
          "name": "slot",
          "type": "bytes32"
        }
      ],
      "name": "UUPSUnsupportedProxiableUUID",
      "type": "error"
    },
    {
      "inputs": [],
      "name": "UnsupportedOperation",
      "type": "error"
    },
    {
      "anonymous": false,
      "inputs": [
        {
          "indexed": false,
          "internalType": "address",
          "name": "delegate",
          "type": "address"
        }
      ],
      "name": "ClaimDelegateSet",
      "type": "event"
    },
    {
      "anonymous": false,
      "inputs": [
        {
          "indexed": false,
          "internalType": "address",
          "name": "recipient",
          "type": "address"
        },
        {
          "indexed": false,
          "internalType": "address",
          "name": "token",
          "type": "address"
        },
        {
          "indexed": false,
          "internalType": "bytes32",
          "name": "group",
          "type": "bytes32"
        },
        {
          "indexed": false,
          "internalType": "uint256",
          "name": "amount",
          "type": "uint256"
        }
      ],
      "name": "Claimed",
      "type": "event"
    },
    {
      "anonymous": false,
      "inputs": [
        {
          "indexed": false,
          "internalType": "uint64",
          "name": "version",
          "type": "uint64"
        }
      ],
      "name": "Initialized",
      "type": "event"
    },
    {
      "anonymous": false,
      "inputs": [
        {
          "indexed": false,
          "internalType": "string",
          "name": "projectId",
          "type": "string"
        }
      ],
      "name": "Initialized",
      "type": "event"
    },
    {
      "anonymous": false,
      "inputs": [
        {
          "indexed": true,
          "internalType": "address",
          "name": "previousOwner",
          "type": "address"
        },
        {
          "indexed": true,
          "internalType": "address",
          "name": "newOwner",
          "type": "address"
        }
      ],
      "name": "OwnershipTransferred",
      "type": "event"
    },
    {
      "anonymous": false,
      "inputs": [
        {
          "indexed": false,
          "internalType": "address",
          "name": "account",
          "type": "address"
        }
      ],
      "name": "Paused",
      "type": "event"
    },
    {
      "anonymous": false,
      "inputs": [],
      "name": "RootLocked",
      "type": "event"
    },
    {
      "anonymous": false,
      "inputs": [],
      "name": "RootSet",
      "type": "event"
    },
    {
      "anonymous": false,
      "inputs": [],
      "name": "TimeSet",
      "type": "event"
    },
    {
      "anonymous": false,
      "inputs": [
        {
          "indexed": false,
          "internalType": "address",
          "name": "token",
          "type": "address"
        }
      ],
      "name": "TokenSet",
      "type": "event"
    },
    {
      "anonymous": false,
      "inputs": [
        {
          "indexed": false,
          "internalType": "address",
          "name": "account",
          "type": "address"
        }
      ],
      "name": "Unpaused",
      "type": "event"
    },
    {
      "anonymous": false,
      "inputs": [
        {
          "indexed": true,
          "internalType": "address",
          "name": "implementation",
          "type": "address"
        }
      ],
      "name": "Upgraded",
      "type": "event"
    },
    {
      "inputs": [],
      "name": "UPGRADE_INTERFACE_VERSION",
      "outputs": [
        {
          "internalType": "string",
          "name": "",
          "type": "string"
        }
      ],
      "stateMutability": "view",
      "type": "function"
    },
    {
      "inputs": [
        {
          "internalType": "bytes32[]",
          "name": "proof",
          "type": "bytes32[]"
        },
        {
          "internalType": "bytes32",
          "name": "group",
          "type": "bytes32"
        },
        {
          "internalType": "bytes",
          "name": "data",
          "type": "bytes"
        }
      ],
      "name": "claim",
      "outputs": [],
      "stateMutability": "nonpayable",
      "type": "function"
    },
    {
      "inputs": [
        {
          "internalType": "bytes",
          "name": "data",
          "type": "bytes"
        }
      ],
      "name": "decodeLeafData",
      "outputs": [
        {
          "components": [
            {
              "internalType": "uint256",
              "name": "index",
              "type": "uint256"
            },
            {
              "internalType": "uint256",
              "name": "claimableTimestamp",
              "type": "uint256"
            },
            {
              "internalType": "uint256",
              "name": "claimableAmount",
              "type": "uint256"
            }
          ],
          "internalType": "struct TokenTableMerkleDistributorData",
          "name": "",
          "type": "tuple"
        }
      ],
      "stateMutability": "pure",
      "type": "function"
    },
    {
      "inputs": [
        {
          "internalType": "address",
          "name": "recipient",
          "type": "address"
        },
        {
          "internalType": "bytes32[]",
          "name": "proof",
          "type": "bytes32[]"
        },
        {
          "internalType": "bytes32",
          "name": "group",
          "type": "bytes32"
        },
        {
          "internalType": "bytes",
          "name": "data",
          "type": "bytes"
        }
      ],
      "name": "delegateClaim",
      "outputs": [],
      "stateMutability": "nonpayable",
      "type": "function"
    },
    {
      "inputs": [
        {
          "internalType": "address",
          "name": "user",
          "type": "address"
        },
        {
          "internalType": "bytes32",
          "name": "group",
          "type": "bytes32"
        },
        {
          "internalType": "bytes",
          "name": "data",
          "type": "bytes"
        }
      ],
      "name": "encodeLeaf",
      "outputs": [
        {
          "internalType": "bytes32",
          "name": "",
          "type": "bytes32"
        }
      ],
      "stateMutability": "view",
      "type": "function"
    },
    {
      "inputs": [],
      "name": "getClaimDelegate",
      "outputs": [
        {
          "internalType": "address",
          "name": "",
          "type": "address"
        }
      ],
      "stateMutability": "view",
      "type": "function"
    },
    {
      "inputs": [],
      "name": "getRoot",
      "outputs": [
        {
          "internalType": "bytes32",
          "name": "",
          "type": "bytes32"
        }
      ],
      "stateMutability": "view",
      "type": "function"
    },
    {
      "inputs": [],
      "name": "getRootLocked",
      "outputs": [
        {
          "internalType": "bool",
          "name": "",
          "type": "bool"
        }
      ],
      "stateMutability": "view",
      "type": "function"
    },
    {
      "inputs": [],
      "name": "getTime",
      "outputs": [
        {
          "internalType": "uint256",
          "name": "",
          "type": "uint256"
        },
        {
          "internalType": "uint256",
          "name": "",
          "type": "uint256"
        }
      ],
      "stateMutability": "view",
      "type": "function"
    },
    {
      "inputs": [],
      "name": "getToken",
      "outputs": [
        {
          "internalType": "address",
          "name": "",
          "type": "address"
        }
      ],
      "stateMutability": "view",
      "type": "function"
    },
    {
      "inputs": [
        {
          "internalType": "string",
          "name": "projectId",
          "type": "string"
        },
        {
          "internalType": "address",
          "name": "owner_",
          "type": "address"
        }
      ],
      "name": "initialize",
      "outputs": [],
      "stateMutability": "nonpayable",
      "type": "function"
    },
    {
      "inputs": [
        {
          "internalType": "bytes32",
          "name": "leaf",
          "type": "bytes32"
        }
      ],
      "name": "isLeafUsed",
      "outputs": [
        {
          "internalType": "bool",
          "name": "",
          "type": "bool"
        }
      ],
      "stateMutability": "view",
      "type": "function"
    },
    {
      "inputs": [],
      "name": "lockRoot",
      "outputs": [],
      "stateMutability": "nonpayable",
      "type": "function"
    },
    {
      "inputs": [],
      "name": "nuke",
      "outputs": [],
      "stateMutability": "nonpayable",
      "type": "function"
    },
    {
      "inputs": [],
      "name": "owner",
      "outputs": [
        {
          "internalType": "address",
          "name": "",
          "type": "address"
        }
      ],
      "stateMutability": "view",
      "type": "function"
    },
    {
      "inputs": [],
      "name": "paused",
      "outputs": [
        {
          "internalType": "bool",
          "name": "",
          "type": "bool"
        }
      ],
      "stateMutability": "view",
      "type": "function"
    },
    {
      "inputs": [],
      "name": "proxiableUUID",
      "outputs": [
        {
          "internalType": "bytes32",
          "name": "",
          "type": "bytes32"
        }
      ],
      "stateMutability": "view",
      "type": "function"
    },
    {
      "inputs": [],
      "name": "renounceOwnership",
      "outputs": [],
      "stateMutability": "nonpayable",
      "type": "function"
    },
    {
      "inputs": [
        {
          "internalType": "address",
          "name": "delegate",
          "type": "address"
        }
      ],
      "name": "setClaimDelegate",
      "outputs": [],
      "stateMutability": "nonpayable",
      "type": "function"
    },
    {
      "inputs": [
        {
          "internalType": "address",
          "name": "",
          "type": "address"
        }
      ],
      "name": "setHook",
      "outputs": [],
      "stateMutability": "nonpayable",
      "type": "function"
    },
    {
      "inputs": [
        {
          "internalType": "bool",
          "name": "shouldPause",
          "type": "bool"
        }
      ],
      "name": "setPause",
      "outputs": [],
      "stateMutability": "nonpayable",
      "type": "function"
    },
    {
      "inputs": [
        {
          "internalType": "bytes32",
          "name": "root",
          "type": "bytes32"
        },
        {
          "internalType": "uint256",
          "name": "deadline",
          "type": "uint256"
        }
      ],
      "name": "setRoot",
      "outputs": [],
      "stateMutability": "nonpayable",
      "type": "function"
    },
    {
      "inputs": [
        {
          "internalType": "uint256",
          "name": "startTime",
          "type": "uint256"
        },
        {
          "internalType": "uint256",
          "name": "endTime",
          "type": "uint256"
        }
      ],
      "name": "setStartEndTime",
      "outputs": [],
      "stateMutability": "nonpayable",
      "type": "function"
    },
    {
      "inputs": [
        {
          "internalType": "address",
          "name": "token",
          "type": "address"
        }
      ],
      "name": "setToken",
      "outputs": [],
      "stateMutability": "nonpayable",
      "type": "function"
    },
    {
      "inputs": [
        {
          "internalType": "address",
          "name": "newOwner",
          "type": "address"
        }
      ],
      "name": "transferOwnership",
      "outputs": [],
      "stateMutability": "nonpayable",
      "type": "function"
    },
    {
      "inputs": [
        {
          "internalType": "address",
          "name": "newImplementation",
          "type": "address"
        },
        {
          "internalType": "bytes",
          "name": "data",
          "type": "bytes"
        }
      ],
      "name": "upgradeToAndCall",
      "outputs": [],
      "stateMutability": "payable",
      "type": "function"
    },
    {
      "inputs": [
        {
          "internalType": "bytes32[]",
          "name": "proof",
          "type": "bytes32[]"
        },
        {
          "internalType": "bytes32",
          "name": "leaf",
          "type": "bytes32"
        }
      ],
      "name": "verify",
      "outputs": [],
      "stateMutability": "view",
      "type": "function"
    },
    {
      "inputs": [],
      "name": "version",
      "outputs": [
        {
          "internalType": "string",
          "name": "",
          "type": "string"
        }
      ],
      "stateMutability": "pure",
      "type": "function"
    }
  ],
  "transactionHash": "0xd7650a7057568c4cf84580f51b6698115958a6184206903c238f71b5daf51310",
  "args": [],
  "numDeployments": 1,
  "solcInputHash": "34b0e98e1a1f226557da201e52291579",
  "bytecode": "0x60a06040523060805234801561001457600080fd5b5046617a69146100265761002661002b565b6100dd565b7ff0c57e16840df040f15088dc2f81fe391c3923bec73e23a9662efc9c229c6a00805468010000000000000000900460ff161561007b5760405163f92ee8a960e01b815260040160405180910390fd5b80546001600160401b03908116146100da5780546001600160401b0319166001600160401b0390811782556040519081527fc7f505b2f371ae2175ee4913f4499e1f2633a7b5936321eed1cdaeb6115181d29060200160405180910390a15b50565b608051611bc761010660003960008181610d6401528181610d8d0152610eca0152611bc76000f3fe6080604052600436106101575760003560e01c80636e98be7f116100bc5780636e98be7f14610324578063715018a6146103445780637ab4339d146103595780638da5cb5b14610379578063972a2a621461038e578063ad3cb1cc146103ae578063bc8fbbf8146103df578063bedb86fb146103f4578063e0870b0414610414578063e169695714610434578063edbe2a2114610454578063edd642e814610474578063f2fde38b14610489578063fec0e0f1146104a957600080fd5b8063144fa6d71461015c57806321df0da71461017e57806322e0ab16146101a957806324456781146101be57806332da1329146101d35780633c8949b3146101f35780633dfd3873146102135780634f1ef2861461023357806352d1902d1461024657806354fd4d5014610269578063557ed1ba146102a05780635c975abb146102ca5780635ca1e165146102ef57806367ab16d614610304575b600080fd5b34801561016857600080fd5b5061017c6101773660046115db565b6104eb565b005b34801561018a57600080fd5b50610193610585565b6040516101a091906115f6565b60405180910390f35b3480156101b557600080fd5b506101936105a3565b3480156101ca57600080fd5b5061017c6105c1565b3480156101df57600080fd5b5061017c6101ee36600461160a565b610611565b3480156101ff57600080fd5b5061017c61020e3660046115db565b61068f565b34801561021f57600080fd5b5061017c61022e3660046115db565b6106f1565b61017c6102413660046116d7565b61073f565b34801561025257600080fd5b5061025b61075e565b6040519081526020016101a0565b34801561027557600080fd5b50604080518082019091526005815264181718171960d91b60208201525b6040516101a09190611774565b3480156102ac57600080fd5b506102b561077b565b604080519283526020830191909152016101a0565b3480156102d657600080fd5b506102df61079d565b60405190151581526020016101a0565b3480156102fb57600080fd5b5061025b6107b2565b34801561031057600080fd5b5061017c61031f366004611813565b6107c7565b34801561033057600080fd5b506102df61033f36600461188c565b610861565b34801561035057600080fd5b5061017c61087f565b34801561036557600080fd5b5061017c6103743660046118a5565b610893565b34801561038557600080fd5b506101936109d5565b34801561039a57600080fd5b5061017c6103a9366004611906565b6109f0565b3480156103ba57600080fd5b50610293604051806040016040528060058152602001640352e302e360dc1b81525081565b3480156103eb57600080fd5b5061017c610a59565b34801561040057600080fd5b5061017c61040f366004611951565b610ab5565b34801561042057600080fd5b5061017c61042f366004611973565b610ad2565b34801561044057600080fd5b5061025b61044f3660046119fc565b610bb6565b34801561046057600080fd5b5061017c61046f36600461160a565b610bef565b34801561048057600080fd5b506102df610c87565b34801561049557600080fd5b5061017c6104a43660046115db565b610c9f565b3480156104b557600080fd5b506104c96104c4366004611a52565b610cda565b60408051825181526020808401519082015291810151908201526060016101a0565b6104f3610d18565b6104fb610d35565b6006015460ff161561052057604051630f78294960e11b815260040160405180910390fd5b80610529610d35565b60020180546001600160a01b0319166001600160a01b03929092169190911790556040517fa07c91c183e42229e705a9795a1c06d76528b673788b849597364528c96eefb79061057a9083906115f6565b60405180910390a150565b600080610590610d35565b600201546001600160a01b031692915050565b6000806105ae610d35565b600301546001600160a01b031692915050565b6105c9610d18565b60006105d3610d35565b60068101805460ff191660011790556040519091507f4d59dcc3a0812525cd8c41f1023bc183efcbd84e7d9e1c352376126e6ef489fc90600090a150565b610619610d18565b610621610d35565b6006015460ff161561064657604051630f78294960e11b815260040160405180910390fd5b6000610650610d35565b60048101849055600581018390556040519091507f34ad48f58870e0328df77bc8f5551c5bd1bb531e8d975bba89341e44a848774890600090a1505050565b610697610d18565b806106a0610d35565b60030180546001600160a01b0319166001600160a01b03929092169190911790556040517f9ca1bfcac82ee1107a485dd1336f6b73e33bdd7f01445200703a0a6d79f5d4e59061057a9083906115f6565b6106f9610d18565b610701610d35565b6006015460ff161561072657604051630f78294960e11b815260040160405180910390fd5b604051639ba6061b60e01b815260040160405180910390fd5b610747610d59565b61075082610dfe565b61075a8282610e06565b5050565b6000610768610ebf565b50600080516020611b7283398151915290565b6000806000610788610d35565b90508060040154816005015492509250509091565b6000806107a8610f08565b5460ff1692915050565b6000806107bd610d35565b6001015492915050565b6107cf610f2c565b6107d7610d35565b6006015460ff166107fb576040516313b311cb60e21b815260040160405180910390fd5b610803610d35565b6004015442108061081e5750610817610d35565b6005015442115b1561083c5760405163018287d760e31b815260040160405180910390fd5b610844610f52565b610852338686868686610f88565b61085a6110f3565b5050505050565b600061086b610d35565b600092835260205250604090205460ff1690565b610887610d18565b6108916000611104565b565b600061089d611160565b805490915060ff600160401b82041615906001600160401b03166000811580156108c45750825b90506000826001600160401b031660011480156108e05750303b155b9050811580156108ee575080155b1561090c5760405163f92ee8a960e01b815260040160405180910390fd5b845467ffffffffffffffff19166001178555831561093657845460ff60401b1916600160401b1785555b61093f86611184565b610947611195565b61094f6111b2565b7f7bc2a48a4a566e237a12186f19d985b0f76afc9d5290601edac19876253670c28760405161097e9190611774565b60405180910390a183156109cc57845460ff60401b19168555604051600181527fc7f505b2f371ae2175ee4913f4499e1f2633a7b5936321eed1cdaeb6115181d29060200160405180910390a15b50505050505050565b6000806109e06111ba565b546001600160a01b031692915050565b60006109fa610d35565b9050610a0582610861565b15610a2357604051630725855960e11b815260040160405180910390fd5b6001810154610a369085908590856111de565b610a53576040516309bde33960e01b815260040160405180910390fd5b50505050565b610a616111f6565b610a69610d18565b6000610a73610d35565b6000600182018190556002820180546001600160a01b031990811690915560038301805490911690556004820181905560058201559050610ab261087f565b50565b610abd610d18565b80610aca57610ab261121b565b610ab2611267565b610ada610f2c565b610ae2610d35565b600301546001600160a01b0316336001600160a01b031614610b2357335b60405163118cdaa760e01b8152600401610b1a91906115f6565b60405180910390fd5b610b2b610d35565b6006015460ff16610b4f576040516313b311cb60e21b815260040160405180910390fd5b610b57610d35565b60040154421080610b725750610b6b610d35565b6005015442115b15610b905760405163018287d760e31b815260040160405180910390fd5b610b98610f52565b610ba6868686868686610f88565b610bae6110f3565b505050505050565b600030848484604051602001610bcf9493929190611a8e565b6040516020818303038152906040528051906020012090505b9392505050565b610bf7610d18565b610bff610d35565b6006015460ff1615610c2457604051630f78294960e11b815260040160405180910390fd5b42811015610c45576040516309ba674360e41b815260040160405180910390fd5b6000610c4f610d35565b600181018490556040519091507fbde4c8951ecef1c36132fda9f679f7489d81c352c686e6cb94eef24190bb33cb90600090a1505050565b600080610c92610d35565b6006015460ff1692915050565b610ca7610d18565b6001600160a01b038116610cd1576000604051631e4fbdf760e01b8152600401610b1a91906115f6565b610ab281611104565b610cfe60405180606001604052806000815260200160008152602001600081525090565b81806020019051810190610d129190611acb565b92915050565b33610d216109d5565b6001600160a01b0316146108915733610b00565b7f452bdf2c9fe836ad357e55ed0859c19d2ac2a2c151d216523e3d37a8b9a03f0090565b306001600160a01b037f0000000000000000000000000000000000000000000000000000000000000000161480610de057507f00000000000000000000000000000000000000000000000000000000000000006001600160a01b0316610dd4600080516020611b72833981519152546001600160a01b031690565b6001600160a01b031614155b156108915760405163703e46dd60e11b815260040160405180910390fd5b610ab2610d18565b816001600160a01b03166352d1902d6040518163ffffffff1660e01b8152600401602060405180830381865afa925050508015610e60575060408051601f3d908101601f19168201909252610e5d91810190611b26565b60015b610e7f5781604051634c9c8ce360e01b8152600401610b1a91906115f6565b600080516020611b728339815191528114610eb057604051632a87526960e21b815260048101829052602401610b1a565b610eba83836112ae565b505050565b306001600160a01b037f000000000000000000000000000000000000000000000000000000000000000016146108915760405163703e46dd60e11b815260040160405180910390fd5b7fcd5ed15c6e187e77e9aee88184c21f4f2182ab5827cb3b7e07fbedcd63f0330090565b610f3461079d565b156108915760405163d93c066560e01b815260040160405180910390fd5b6000610f5c611304565b805490915060011901610f8257604051633ee5aeb560e01b815260040160405180910390fd5b60029055565b6000610fcb878585858080601f016020809104026020016040519081016040528093929190818152602001838380828437600092019190915250610bb692505050565b9050610fd88686836109f0565b6001610fe2610d35565b600083815260209182526040808220805460ff1916941515949094179093558251601f86018390048302810183019093528483529161103b918690869081908401838280828437600092019190915250610cda92505050565b9050428160200151111561106257604051633000f64760e01b815260040160405180910390fd5b6110888861106e610d35565b6002015460408401516001600160a01b0390911690611328565b7f9780ca5401356db2895e17979114ec3dfd012f98c5e620049726a235a2a5d711886110b2610d35565b6002015460408481015181516001600160a01b0394851681529390921660208401528201889052606082015260800160405180910390a15050505050505050565b60006110fd611304565b6001905550565b600061110e6111ba565b80546001600160a01b038481166001600160a01b031983168117845560405193945091169182907f8be0079c531659141344cd1fd0a4f28419497f9722a3daafe3b4186f6b6457e090600090a3505050565b7ff0c57e16840df040f15088dc2f81fe391c3923bec73e23a9662efc9c229c6a0090565b61118c61139d565b610ab2816113c2565b61119d61139d565b60006111a7610f08565b805460ff1916905550565b6110f361139d565b7f9016d09d72d40fdae2fd8ceac6b6234c7706214fd39c1cd1e609a0528c19930090565b6000826111ec8686856113ca565b1495945050505050565b6111fe61079d565b61089157604051638dfc202b60e01b815260040160405180910390fd5b6112236111f6565b600061122d610f08565b805460ff1916815590507f5db9ee0a495bf2e6ff9c91a7834c1ba4fdd244a5e8aa4e537bd38aeae4b073aa335b60405161057a91906115f6565b61126f610f2c565b6000611279610f08565b805460ff1916600117815590507f62e78cea01bee320cd4e420270b5ea74000d11b0c9f74754ebdbfc544b05a25861125a3390565b6112b78261140c565b6040516001600160a01b038316907fbc7cd75a20ee27fd9adebab32041f755214dbc6bffa90cc0225b39da2e5c2d3b90600090a28051156112fc57610eba8282611468565b61075a6114de565b7f9b779b17422d0df92223018b32b4d1fa46e071723d6817e2486d003becc55f0090565b60005b81811015610a53576040516340d097c360e01b81526001600160a01b038416906340d097c39061135f9087906004016115f6565b600060405180830381600087803b15801561137957600080fd5b505af115801561138d573d6000803e3d6000fd5b50506001909201915061132b9050565b6113a56114fd565b61089157604051631afcd79f60e31b815260040160405180910390fd5b610ca761139d565b600081815b84811015611403576113f9828787848181106113ed576113ed611b3f565b90506020020135611517565b91506001016113cf565b50949350505050565b806001600160a01b03163b6000036114395780604051634c9c8ce360e01b8152600401610b1a91906115f6565b600080516020611b7283398151915280546001600160a01b0319166001600160a01b0392909216919091179055565b6060600080846001600160a01b0316846040516114859190611b55565b600060405180830381855af49150503d80600081146114c0576040519150601f19603f3d011682016040523d82523d6000602084013e6114c5565b606091505b50915091506114d5858383611543565b95945050505050565b34156108915760405163b398979f60e01b815260040160405180910390fd5b6000611507611160565b54600160401b900460ff16919050565b6000818310611533576000828152602084905260409020610be8565b5060009182526020526040902090565b6060826115585761155382611596565b610be8565b815115801561156f57506001600160a01b0384163b155b1561158f5783604051639996b31560e01b8152600401610b1a91906115f6565b5080610be8565b8051156115a65780518082602001fd5b604051630a12f52160e11b815260040160405180910390fd5b80356001600160a01b03811681146115d657600080fd5b919050565b6000602082840312156115ed57600080fd5b610be8826115bf565b6001600160a01b0391909116815260200190565b6000806040838503121561161d57600080fd5b50508035926020909101359150565b634e487b7160e01b600052604160045260246000fd5b60006001600160401b038084111561165c5761165c61162c565b604051601f8501601f19908116603f011681019082821181831017156116845761168461162c565b8160405280935085815286868601111561169d57600080fd5b858560208301376000602087830101525050509392505050565b600082601f8301126116c857600080fd5b610be883833560208501611642565b600080604083850312156116ea57600080fd5b6116f3836115bf565b915060208301356001600160401b0381111561170e57600080fd5b61171a858286016116b7565b9150509250929050565b60005b8381101561173f578181015183820152602001611727565b50506000910152565b60008151808452611760816020860160208601611724565b601f01601f19169290920160200192915050565b602081526000610be86020830184611748565b60008083601f84011261179957600080fd5b5081356001600160401b038111156117b057600080fd5b6020830191508360208260051b85010111156117cb57600080fd5b9250929050565b60008083601f8401126117e457600080fd5b5081356001600160401b038111156117fb57600080fd5b6020830191508360208285010111156117cb57600080fd5b60008060008060006060868803121561182b57600080fd5b85356001600160401b038082111561184257600080fd5b61184e89838a01611787565b909750955060208801359450604088013591508082111561186e57600080fd5b5061187b888289016117d2565b969995985093965092949392505050565b60006020828403121561189e57600080fd5b5035919050565b600080604083850312156118b857600080fd5b82356001600160401b038111156118ce57600080fd5b8301601f810185136118df57600080fd5b6118ee85823560208401611642565b9250506118fd602084016115bf565b90509250929050565b60008060006040848603121561191b57600080fd5b83356001600160401b0381111561193157600080fd5b61193d86828701611787565b909790965060209590950135949350505050565b60006020828403121561196357600080fd5b81358015158114610be857600080fd5b6000806000806000806080878903121561198c57600080fd5b611995876115bf565b955060208701356001600160401b03808211156119b157600080fd5b6119bd8a838b01611787565b90975095506040890135945060608901359150808211156119dd57600080fd5b506119ea89828a016117d2565b979a9699509497509295939492505050565b600080600060608486031215611a1157600080fd5b611a1a846115bf565b92506020840135915060408401356001600160401b03811115611a3c57600080fd5b611a48868287016116b7565b9150509250925092565b600060208284031215611a6457600080fd5b81356001600160401b03811115611a7a57600080fd5b611a86848285016116b7565b949350505050565b6001600160a01b0385811682528416602082015260408101839052608060608201819052600090611ac190830184611748565b9695505050505050565b600060608284031215611add57600080fd5b604051606081018181106001600160401b0382111715611aff57611aff61162c565b80604052508251815260208301516020820152604083015160408201528091505092915050565b600060208284031215611b3857600080fd5b5051919050565b634e487b7160e01b600052603260045260246000fd5b60008251611b67818460208701611724565b919091019291505056fe360894a13ba1a3210667c828492db98dca3e2076cc3735a920a3ca505d382bbca264697066735822122008480edfbe39967987bf2b1ae5056812cb3bd24cb902313f9dd5e8c4e502650d64736f6c63430008180033",
  "devdoc": {
    "errors": {
      "AddressEmptyCode(address)": [
        {
          "details": "There's no code at `target` (it is not a contract)."
        }
      ],
      "ERC1967InvalidImplementation(address)": [
        {
          "details": "The `implementation` of the proxy is invalid."
        }
      ],
      "ERC1967NonPayable()": [
        {
          "details": "An upgrade function sees `msg.value > 0` that may be lost."
        }
      ],
      "EnforcedPause()": [
        {
          "details": "The operation failed because the contract is paused."
        }
      ],
      "ExpectedPause()": [
        {
          "details": "The operation failed because the contract is not paused."
        }
      ],
      "FailedInnerCall()": [
        {
          "details": "A call to an address target failed. The target may have reverted."
        }
      ],
      "InvalidInitialization()": [
        {
          "details": "The contract is already initialized."
        }
      ],
      "NotInitializing()": [
        {
          "details": "The contract is not initializing."
        }
      ],
      "OwnableInvalidOwner(address)": [
        {
          "details": "The owner is not a valid owner account. (eg. `address(0)`)"
        }
      ],
      "OwnableUnauthorizedAccount(address)": [
        {
          "details": "The caller account is not authorized to perform an operation."
        }
      ],
      "ReentrancyGuardReentrantCall()": [
        {
          "details": "Unauthorized reentrant call."
        }
      ],
      "UUPSUnauthorizedCallContext()": [
        {
          "details": "The call is from an unauthorized context."
        }
      ],
      "UUPSUnsupportedProxiableUUID(bytes32)": [
        {
          "details": "The storage `slot` is unsupported as a UUID."
        }
      ]
    },
    "events": {
      "Initialized(uint64)": {
        "details": "Triggered when the contract has been initialized or reinitialized."
      },
      "Paused(address)": {
        "details": "Emitted when the pause is triggered by `account`."
      },
      "Unpaused(address)": {
        "details": "Emitted when the pause is lifted by `account`."
      },
      "Upgraded(address)": {
        "details": "Emitted when the implementation is upgraded."
      }
    },
    "kind": "dev",
    "methods": {
      "owner()": {
        "details": "Returns the address of the current owner."
      },
      "paused()": {
        "details": "Returns true if the contract is paused, and false otherwise."
      },
      "proxiableUUID()": {
        "details": "Implementation of the ERC1822 {proxiableUUID} function. This returns the storage slot used by the implementation. It is used to validate the implementation's compatibility when performing an upgrade. IMPORTANT: A proxy pointing at a proxiable contract should not be considered proxiable itself, because this risks bricking a proxy that upgrades to it, by delegating to itself until out of gas. Thus it is critical that this function revert if invoked through a proxy. This is guaranteed by the `notDelegated` modifier."
      },
      "renounceOwnership()": {
        "details": "Leaves the contract without owner. It will not be possible to call `onlyOwner` functions. Can only be called by the current owner. NOTE: Renouncing ownership will leave the contract without an owner, thereby disabling any functionality that is only available to the owner."
      },
      "transferOwnership(address)": {
        "details": "Transfers ownership of the contract to a new account (`newOwner`). Can only be called by the current owner."
      },
      "upgradeToAndCall(address,bytes)": {
        "custom:oz-upgrades-unsafe-allow-reachable": "delegatecall",
        "details": "Upgrade the implementation of the proxy to `newImplementation`, and subsequently execute the function call encoded in `data`. Calls {_authorizeUpgrade}. Emits an {Upgraded} event."
      }
    },
    "version": 1
  },
  "userdoc": {
    "kind": "user",
    "methods": {},
    "version": 1
  },
  "storageLayout": {
    "storage": [],
    "types": null
  }
}