{
  "address": "0xBbc279ee396074aC968b459d542DEE60c6bD71C1",
  "abi": [
    {
      "inputs": [
        {
          "internalType": "address",
          "name": "target",
          "type": "address"
        }
      ],
      "name": "AddressEmptyCode",
      "type": "error"
    },
    {
      "inputs": [],
      "name": "ClaimPremature",
      "type": "error"
    },
    {
      "inputs": [
        {
          "internalType": "address",
          "name": "implementation",
          "type": "address"
        }
      ],
      "name": "ERC1967InvalidImplementation",
      "type": "error"
    },
    {
      "inputs": [],
      "name": "ERC1967NonPayable",
      "type": "error"
    },
    {
      "inputs": [],
      "name": "EnforcedPause",
      "type": "error"
    },
    {
      "inputs": [],
      "name": "ExpectedPause",
      "type": "error"
    },
    {
      "inputs": [],
      "name": "FailedInnerCall",
      "type": "error"
    },
    {
      "inputs": [],
      "name": "InvalidInitialization",
      "type": "error"
    },
    {
      "inputs": [],
      "name": "InvalidProof",
      "type": "error"
    },
    {
      "inputs": [],
      "name": "LeafUsed",
      "type": "error"
    },
    {
      "inputs": [],
      "name": "NotInitializing",
      "type": "error"
    },
    {
      "inputs": [
        {
          "internalType": "address",
          "name": "owner",
          "type": "address"
        }
      ],
      "name": "OwnableInvalidOwner",
      "type": "error"
    },
    {
      "inputs": [
        {
          "internalType": "address",
          "name": "account",
          "type": "address"
        }
      ],
      "name": "OwnableUnauthorizedAccount",
      "type": "error"
    },
    {
      "inputs": [],
      "name": "ReentrancyGuardReentrantCall",
      "type": "error"
    },
    {
      "inputs": [],
      "name": "RootExpired",
      "type": "error"
    },
    {
      "inputs": [],
      "name": "RootIsLocked",
      "type": "error"
    },
    {
      "inputs": [],
      "name": "RootNotLocked",
      "type": "error"
    },
    {
      "inputs": [],
      "name": "TimeInactive",
      "type": "error"
    },
    {
      "inputs": [],
      "name": "UUPSUnauthorizedCallContext",
      "type": "error"
    },
    {
      "inputs": [
        {
          "internalType": "bytes32",
          "name": "slot",
          "type": "bytes32"
        }
      ],
      "name": "UUPSUnsupportedProxiableUUID",
      "type": "error"
    },
    {
      "inputs": [],
      "name": "UnsupportedOperation",
      "type": "error"
    },
    {
      "anonymous": false,
      "inputs": [
        {
          "indexed": false,
          "internalType": "address",
          "name": "delegate",
          "type": "address"
        }
      ],
      "name": "ClaimDelegateSet",
      "type": "event"
    },
    {
      "anonymous": false,
      "inputs": [
        {
          "indexed": false,
          "internalType": "address",
          "name": "recipient",
          "type": "address"
        },
        {
          "indexed": false,
          "internalType": "address",
          "name": "token",
          "type": "address"
        },
        {
          "indexed": false,
          "internalType": "bytes32",
          "name": "group",
          "type": "bytes32"
        },
        {
          "indexed": false,
          "internalType": "uint256",
          "name": "amount",
          "type": "uint256"
        }
      ],
      "name": "Claimed",
      "type": "event"
    },
    {
      "anonymous": false,
      "inputs": [
        {
          "indexed": false,
          "internalType": "uint64",
          "name": "version",
          "type": "uint64"
        }
      ],
      "name": "Initialized",
      "type": "event"
    },
    {
      "anonymous": false,
      "inputs": [
        {
          "indexed": false,
          "internalType": "string",
          "name": "projectId",
          "type": "string"
        }
      ],
      "name": "Initialized",
      "type": "event"
    },
    {
      "anonymous": false,
      "inputs": [
        {
          "indexed": true,
          "internalType": "address",
          "name": "previousOwner",
          "type": "address"
        },
        {
          "indexed": true,
          "internalType": "address",
          "name": "newOwner",
          "type": "address"
        }
      ],
      "name": "OwnershipTransferred",
      "type": "event"
    },
    {
      "anonymous": false,
      "inputs": [
        {
          "indexed": false,
          "internalType": "address",
          "name": "account",
          "type": "address"
        }
      ],
      "name": "Paused",
      "type": "event"
    },
    {
      "anonymous": false,
      "inputs": [],
      "name": "RootLocked",
      "type": "event"
    },
    {
      "anonymous": false,
      "inputs": [],
      "name": "RootSet",
      "type": "event"
    },
    {
      "anonymous": false,
      "inputs": [],
      "name": "TimeSet",
      "type": "event"
    },
    {
      "anonymous": false,
      "inputs": [
        {
          "indexed": false,
          "internalType": "address",
          "name": "token",
          "type": "address"
        }
      ],
      "name": "TokenSet",
      "type": "event"
    },
    {
      "anonymous": false,
      "inputs": [
        {
          "indexed": false,
          "internalType": "address",
          "name": "account",
          "type": "address"
        }
      ],
      "name": "Unpaused",
      "type": "event"
    },
    {
      "anonymous": false,
      "inputs": [
        {
          "indexed": true,
          "internalType": "address",
          "name": "implementation",
          "type": "address"
        }
      ],
      "name": "Upgraded",
      "type": "event"
    },
    {
      "inputs": [],
      "name": "UPGRADE_INTERFACE_VERSION",
      "outputs": [
        {
          "internalType": "string",
          "name": "",
          "type": "string"
        }
      ],
      "stateMutability": "view",
      "type": "function"
    },
    {
      "inputs": [
        {
          "internalType": "bytes32[]",
          "name": "proof",
          "type": "bytes32[]"
        },
        {
          "internalType": "bytes32",
          "name": "group",
          "type": "bytes32"
        },
        {
          "internalType": "bytes",
          "name": "data",
          "type": "bytes"
        }
      ],
      "name": "claim",
      "outputs": [],
      "stateMutability": "nonpayable",
      "type": "function"
    },
    {
      "inputs": [
        {
          "internalType": "bytes",
          "name": "data",
          "type": "bytes"
        }
      ],
      "name": "decodeLeafData",
      "outputs": [
        {
          "components": [
            {
              "internalType": "uint256",
              "name": "index",
              "type": "uint256"
            },
            {
              "internalType": "uint256",
              "name": "claimableTimestamp",
              "type": "uint256"
            },
            {
              "internalType": "uint256",
              "name": "claimableAmount",
              "type": "uint256"
            }
          ],
          "internalType": "struct TokenTableMerkleDistributorData",
          "name": "",
          "type": "tuple"
        }
      ],
      "stateMutability": "pure",
      "type": "function"
    },
    {
      "inputs": [
        {
          "internalType": "address",
          "name": "recipient",
          "type": "address"
        },
        {
          "internalType": "bytes32[]",
          "name": "proof",
          "type": "bytes32[]"
        },
        {
          "internalType": "bytes32",
          "name": "group",
          "type": "bytes32"
        },
        {
          "internalType": "bytes",
          "name": "data",
          "type": "bytes"
        }
      ],
      "name": "delegateClaim",
      "outputs": [],
      "stateMutability": "nonpayable",
      "type": "function"
    },
    {
      "inputs": [
        {
          "internalType": "address",
          "name": "user",
          "type": "address"
        },
        {
          "internalType": "bytes32",
          "name": "group",
          "type": "bytes32"
        },
        {
          "internalType": "bytes",
          "name": "data",
          "type": "bytes"
        }
      ],
      "name": "encodeLeaf",
      "outputs": [
        {
          "internalType": "bytes32",
          "name": "",
          "type": "bytes32"
        }
      ],
      "stateMutability": "view",
      "type": "function"
    },
    {
      "inputs": [],
      "name": "getClaimDelegate",
      "outputs": [
        {
          "internalType": "address",
          "name": "",
          "type": "address"
        }
      ],
      "stateMutability": "view",
      "type": "function"
    },
    {
      "inputs": [],
      "name": "getRoot",
      "outputs": [
        {
          "internalType": "bytes32",
          "name": "",
          "type": "bytes32"
        }
      ],
      "stateMutability": "view",
      "type": "function"
    },
    {
      "inputs": [],
      "name": "getRootLocked",
      "outputs": [
        {
          "internalType": "bool",
          "name": "",
          "type": "bool"
        }
      ],
      "stateMutability": "view",
      "type": "function"
    },
    {
      "inputs": [],
      "name": "getTime",
      "outputs": [
        {
          "internalType": "uint256",
          "name": "",
          "type": "uint256"
        },
        {
          "internalType": "uint256",
          "name": "",
          "type": "uint256"
        }
      ],
      "stateMutability": "view",
      "type": "function"
    },
    {
      "inputs": [],
      "name": "getToken",
      "outputs": [
        {
          "internalType": "address",
          "name": "",
          "type": "address"
        }
      ],
      "stateMutability": "view",
      "type": "function"
    },
    {
      "inputs": [
        {
          "internalType": "string",
          "name": "projectId",
          "type": "string"
        },
        {
          "internalType": "address",
          "name": "owner_",
          "type": "address"
        }
      ],
      "name": "initialize",
      "outputs": [],
      "stateMutability": "nonpayable",
      "type": "function"
    },
    {
      "inputs": [
        {
          "internalType": "bytes32",
          "name": "leaf",
          "type": "bytes32"
        }
      ],
      "name": "isLeafUsed",
      "outputs": [
        {
          "internalType": "bool",
          "name": "",
          "type": "bool"
        }
      ],
      "stateMutability": "view",
      "type": "function"
    },
    {
      "inputs": [],
      "name": "lockRoot",
      "outputs": [],
      "stateMutability": "nonpayable",
      "type": "function"
    },
    {
      "inputs": [],
      "name": "nuke",
      "outputs": [],
      "stateMutability": "nonpayable",
      "type": "function"
    },
    {
      "inputs": [],
      "name": "owner",
      "outputs": [
        {
          "internalType": "address",
          "name": "",
          "type": "address"
        }
      ],
      "stateMutability": "view",
      "type": "function"
    },
    {
      "inputs": [],
      "name": "paused",
      "outputs": [
        {
          "internalType": "bool",
          "name": "",
          "type": "bool"
        }
      ],
      "stateMutability": "view",
      "type": "function"
    },
    {
      "inputs": [],
      "name": "proxiableUUID",
      "outputs": [
        {
          "internalType": "bytes32",
          "name": "",
          "type": "bytes32"
        }
      ],
      "stateMutability": "view",
      "type": "function"
    },
    {
      "inputs": [],
      "name": "renounceOwnership",
      "outputs": [],
      "stateMutability": "nonpayable",
      "type": "function"
    },
    {
      "inputs": [
        {
          "internalType": "address",
          "name": "delegate",
          "type": "address"
        }
      ],
      "name": "setClaimDelegate",
      "outputs": [],
      "stateMutability": "nonpayable",
      "type": "function"
    },
    {
      "inputs": [
        {
          "internalType": "address",
          "name": "",
          "type": "address"
        }
      ],
      "name": "setHook",
      "outputs": [],
      "stateMutability": "nonpayable",
      "type": "function"
    },
    {
      "inputs": [
        {
          "internalType": "bool",
          "name": "shouldPause",
          "type": "bool"
        }
      ],
      "name": "setPause",
      "outputs": [],
      "stateMutability": "nonpayable",
      "type": "function"
    },
    {
      "inputs": [
        {
          "internalType": "bytes32",
          "name": "root",
          "type": "bytes32"
        },
        {
          "internalType": "uint256",
          "name": "deadline",
          "type": "uint256"
        }
      ],
      "name": "setRoot",
      "outputs": [],
      "stateMutability": "nonpayable",
      "type": "function"
    },
    {
      "inputs": [
        {
          "internalType": "uint256",
          "name": "startTime",
          "type": "uint256"
        },
        {
          "internalType": "uint256",
          "name": "endTime",
          "type": "uint256"
        }
      ],
      "name": "setStartEndTime",
      "outputs": [],
      "stateMutability": "nonpayable",
      "type": "function"
    },
    {
      "inputs": [
        {
          "internalType": "address",
          "name": "token",
          "type": "address"
        }
      ],
      "name": "setToken",
      "outputs": [],
      "stateMutability": "nonpayable",
      "type": "function"
    },
    {
      "inputs": [
        {
          "internalType": "address",
          "name": "newOwner",
          "type": "address"
        }
      ],
      "name": "transferOwnership",
      "outputs": [],
      "stateMutability": "nonpayable",
      "type": "function"
    },
    {
      "inputs": [
        {
          "internalType": "address",
          "name": "newImplementation",
          "type": "address"
        },
        {
          "internalType": "bytes",
          "name": "data",
          "type": "bytes"
        }
      ],
      "name": "upgradeToAndCall",
      "outputs": [],
      "stateMutability": "payable",
      "type": "function"
    },
    {
      "inputs": [
        {
          "internalType": "bytes32[]",
          "name": "proof",
          "type": "bytes32[]"
        },
        {
          "internalType": "bytes32",
          "name": "leaf",
          "type": "bytes32"
        }
      ],
      "name": "verify",
      "outputs": [],
      "stateMutability": "view",
      "type": "function"
    },
    {
      "inputs": [],
      "name": "version",
      "outputs": [
        {
          "internalType": "string",
          "name": "",
          "type": "string"
        }
      ],
      "stateMutability": "pure",
      "type": "function"
    },
    {
      "inputs": [
        {
          "internalType": "bytes",
          "name": "extraData",
          "type": "bytes"
        }
      ],
      "name": "withdraw",
      "outputs": [],
      "stateMutability": "nonpayable",
      "type": "function"
    }
  ],
  "transactionHash": "0x727929a068a03f07c8d089ea977d0c777e846b52c5b8e42072b91659358b6424",
  "args": [],
  "numDeployments": 2,
  "solcInputHash": "c6765bc7339c8c0f64c72b305cfce0f4",
  "bytecode": "0x60a06040523060805234801561001457600080fd5b5046617a69146100265761002661002b565b6100dd565b7ff0c57e16840df040f15088dc2f81fe391c3923bec73e23a9662efc9c229c6a00805468010000000000000000900460ff161561007b5760405163f92ee8a960e01b815260040160405180910390fd5b80546001600160401b03908116146100da5780546001600160401b0319166001600160401b0390811782556040519081527fc7f505b2f371ae2175ee4913f4499e1f2633a7b5936321eed1cdaeb6115181d29060200160405180910390a15b50565b608051611d886200010760003960008181610e7301528181610e9c0152610fd40152611d886000f3fe6080604052600436106101625760003560e01c806367ab16d6116100c757806367ab16d61461032f5780636e98be7f1461034f578063715018a61461036f5780637ab4339d146103845780638da5cb5b146103a4578063972a2a62146103b9578063ad3cb1cc146103d9578063bc8fbbf81461040a578063bedb86fb1461041f578063e0870b041461043f578063e16969571461045f578063edbe2a211461047f578063edd642e81461049f578063f2fde38b146104b4578063fec0e0f1146104d457600080fd5b80630968f26414610167578063144fa6d71461018957806321df0da7146101a957806322e0ab16146101d457806324456781146101e957806332da1329146101fe5780633c8949b31461021e5780633dfd38731461023e5780634f1ef2861461025e57806352d1902d1461027157806354fd4d5014610294578063557ed1ba146102cb5780635c975abb146102f55780635ca1e1651461031a575b600080fd5b34801561017357600080fd5b50610187610182366004611786565b610516565b005b34801561019557600080fd5b506101876101a43660046117de565b6105fa565b3480156101b557600080fd5b506101be610694565b6040516101cb91906117f9565b60405180910390f35b3480156101e057600080fd5b506101be6106b2565b3480156101f557600080fd5b506101876106d0565b34801561020a57600080fd5b5061018761021936600461180d565b610720565b34801561022a57600080fd5b506101876102393660046117de565b61079e565b34801561024a57600080fd5b506101876102593660046117de565b610800565b61018761026c36600461182f565b61084e565b34801561027d57600080fd5b5061028661086d565b6040519081526020016101cb565b3480156102a057600080fd5b50604080518082019091526005815264181718171960d91b60208201525b6040516101cb91906118cc565b3480156102d757600080fd5b506102e061088a565b604080519283526020830191909152016101cb565b34801561030157600080fd5b5061030a6108ac565b60405190151581526020016101cb565b34801561032657600080fd5b506102866108c1565b34801561033b57600080fd5b5061018761034a36600461196b565b6108d6565b34801561035b57600080fd5b5061030a61036a3660046119e4565b610970565b34801561037b57600080fd5b5061018761098e565b34801561039057600080fd5b5061018761039f3660046119fd565b6109a2565b3480156103b057600080fd5b506101be610ae4565b3480156103c557600080fd5b506101876103d4366004611a5e565b610aff565b3480156103e557600080fd5b506102be604051806040016040528060058152602001640352e302e360dc1b81525081565b34801561041657600080fd5b50610187610b68565b34801561042b57600080fd5b5061018761043a366004611aa9565b610bc4565b34801561044b57600080fd5b5061018761045a366004611acb565b610be1565b34801561046b57600080fd5b5061028661047a366004611b54565b610cc5565b34801561048b57600080fd5b5061018761049a36600461180d565b610cfe565b3480156104ab57600080fd5b5061030a610d96565b3480156104c057600080fd5b506101876104cf3660046117de565b610dae565b3480156104e057600080fd5b506104f46104ef366004611786565b610de9565b60408051825181526020808401519082015291810151908201526060016101cb565b61051e610e27565b6000818060200190518101906105349190611baa565b905060005b81518110156105f55761054a610e44565b600201546001600160a01b03166342842e0e30610565610ae4565b85858151811061057757610577611c4f565b60209081029190910101516040516001600160e01b031960e086901b1681526001600160a01b0393841660048201529290911660248301526044820152606401600060405180830381600087803b1580156105d157600080fd5b505af11580156105e5573d6000803e3d6000fd5b5050600190920191506105399050565b505050565b610602610e27565b61060a610e44565b6006015460ff161561062f57604051630f78294960e11b815260040160405180910390fd5b80610638610e44565b60020180546001600160a01b0319166001600160a01b03929092169190911790556040517fa07c91c183e42229e705a9795a1c06d76528b673788b849597364528c96eefb7906106899083906117f9565b60405180910390a150565b60008061069f610e44565b600201546001600160a01b031692915050565b6000806106bd610e44565b600301546001600160a01b031692915050565b6106d8610e27565b60006106e2610e44565b60068101805460ff191660011790556040519091507f4d59dcc3a0812525cd8c41f1023bc183efcbd84e7d9e1c352376126e6ef489fc90600090a150565b610728610e27565b610730610e44565b6006015460ff161561075557604051630f78294960e11b815260040160405180910390fd5b600061075f610e44565b60048101849055600581018390556040519091507f34ad48f58870e0328df77bc8f5551c5bd1bb531e8d975bba89341e44a848774890600090a1505050565b6107a6610e27565b806107af610e44565b60030180546001600160a01b0319166001600160a01b03929092169190911790556040517f9ca1bfcac82ee1107a485dd1336f6b73e33bdd7f01445200703a0a6d79f5d4e5906106899083906117f9565b610808610e27565b610810610e44565b6006015460ff161561083557604051630f78294960e11b815260040160405180910390fd5b604051639ba6061b60e01b815260040160405180910390fd5b610856610e68565b61085f82610f0d565b6108698282610f15565b5050565b6000610877610fc9565b50600080516020611d3383398151915290565b6000806000610897610e44565b90508060040154816005015492509250509091565b6000806108b7611012565b5460ff1692915050565b6000806108cc610e44565b6001015492915050565b6108de611036565b6108e6610e44565b6006015460ff1661090a576040516313b311cb60e21b815260040160405180910390fd5b610912610e44565b6004015442108061092d5750610926610e44565b6005015442115b1561094b5760405163018287d760e31b815260040160405180910390fd5b61095361105c565b610961338686868686611092565b6109696111fd565b5050505050565b600061097a610e44565b600092835260205250604090205460ff1690565b610996610e27565b6109a0600061120e565b565b60006109ac61126a565b805490915060ff600160401b82041615906001600160401b03166000811580156109d35750825b90506000826001600160401b031660011480156109ef5750303b155b9050811580156109fd575080155b15610a1b5760405163f92ee8a960e01b815260040160405180910390fd5b845467ffffffffffffffff191660011785558315610a4557845460ff60401b1916600160401b1785555b610a4e8661128e565b610a5661129f565b610a5e6112bc565b7f7bc2a48a4a566e237a12186f19d985b0f76afc9d5290601edac19876253670c287604051610a8d91906118cc565b60405180910390a18315610adb57845460ff60401b19168555604051600181527fc7f505b2f371ae2175ee4913f4499e1f2633a7b5936321eed1cdaeb6115181d29060200160405180910390a15b50505050505050565b600080610aef6112c4565b546001600160a01b031692915050565b6000610b09610e44565b9050610b1482610970565b15610b3257604051630725855960e11b815260040160405180910390fd5b6001810154610b459085908590856112e8565b610b62576040516309bde33960e01b815260040160405180910390fd5b50505050565b610b70611300565b610b78610e27565b6000610b82610e44565b6000600182018190556002820180546001600160a01b031990811690915560038301805490911690556004820181905560058201559050610bc161098e565b50565b610bcc610e27565b80610bd957610bc1611325565b610bc1611371565b610be9611036565b610bf1610e44565b600301546001600160a01b0316336001600160a01b031614610c3257335b60405163118cdaa760e01b8152600401610c2991906117f9565b60405180910390fd5b610c3a610e44565b6006015460ff16610c5e576040516313b311cb60e21b815260040160405180910390fd5b610c66610e44565b60040154421080610c815750610c7a610e44565b6005015442115b15610c9f5760405163018287d760e31b815260040160405180910390fd5b610ca761105c565b610cb5868686868686611092565b610cbd6111fd565b505050505050565b600030848484604051602001610cde9493929190611c65565b6040516020818303038152906040528051906020012090505b9392505050565b610d06610e27565b610d0e610e44565b6006015460ff1615610d3357604051630f78294960e11b815260040160405180910390fd5b42811015610d54576040516309ba674360e41b815260040160405180910390fd5b6000610d5e610e44565b600181018490556040519091507fbde4c8951ecef1c36132fda9f679f7489d81c352c686e6cb94eef24190bb33cb90600090a1505050565b600080610da1610e44565b6006015460ff1692915050565b610db6610e27565b6001600160a01b038116610de0576000604051631e4fbdf760e01b8152600401610c2991906117f9565b610bc18161120e565b610e0d60405180606001604052806000815260200160008152602001600081525090565b81806020019051810190610e219190611ca2565b92915050565b33610e30610ae4565b6001600160a01b0316146109a05733610c0f565b7f452bdf2c9fe836ad357e55ed0859c19d2ac2a2c151d216523e3d37a8b9a03f0090565b306001600160a01b037f0000000000000000000000000000000000000000000000000000000000000000161480610eef57507f00000000000000000000000000000000000000000000000000000000000000006001600160a01b0316610ee3600080516020611d33833981519152546001600160a01b031690565b6001600160a01b031614155b156109a05760405163703e46dd60e11b815260040160405180910390fd5b610bc1610e27565b816001600160a01b03166352d1902d6040518163ffffffff1660e01b8152600401602060405180830381865afa925050508015610f6f575060408051601f3d908101601f19168201909252610f6c91810190611cfd565b60015b610f8e5781604051634c9c8ce360e01b8152600401610c2991906117f9565b600080516020611d338339815191528114610fbf57604051632a87526960e21b815260048101829052602401610c29565b6105f583836113b8565b306001600160a01b037f000000000000000000000000000000000000000000000000000000000000000016146109a05760405163703e46dd60e11b815260040160405180910390fd5b7fcd5ed15c6e187e77e9aee88184c21f4f2182ab5827cb3b7e07fbedcd63f0330090565b61103e6108ac565b156109a05760405163d93c066560e01b815260040160405180910390fd5b600061106661140e565b80549091506001190161108c57604051633ee5aeb560e01b815260040160405180910390fd5b60029055565b60006110d5878585858080601f016020809104026020016040519081016040528093929190818152602001838380828437600092019190915250610cc592505050565b90506110e2868683610aff565b60016110ec610e44565b600083815260209182526040808220805460ff1916941515949094179093558251601f860183900483028101830190935284835291611145918690869081908401838280828437600092019190915250610de992505050565b9050428160200151111561116c57604051633000f64760e01b815260040160405180910390fd5b61119288611178610e44565b6002015460408401516001600160a01b0390911690611432565b7f9780ca5401356db2895e17979114ec3dfd012f98c5e620049726a235a2a5d711886111bc610e44565b6002015460408481015181516001600160a01b0394851681529390921660208401528201889052606082015260800160405180910390a15050505050505050565b600061120761140e565b6001905550565b60006112186112c4565b80546001600160a01b038481166001600160a01b031983168117845560405193945091169182907f8be0079c531659141344cd1fd0a4f28419497f9722a3daafe3b4186f6b6457e090600090a3505050565b7ff0c57e16840df040f15088dc2f81fe391c3923bec73e23a9662efc9c229c6a0090565b6112966114a7565b610bc1816114cc565b6112a76114a7565b60006112b1611012565b805460ff1916905550565b6111fd6114a7565b7f9016d09d72d40fdae2fd8ceac6b6234c7706214fd39c1cd1e609a0528c19930090565b6000826112f68686856114d4565b1495945050505050565b6113086108ac565b6109a057604051638dfc202b60e01b815260040160405180910390fd5b61132d611300565b6000611337611012565b805460ff1916815590507f5db9ee0a495bf2e6ff9c91a7834c1ba4fdd244a5e8aa4e537bd38aeae4b073aa335b60405161068991906117f9565b611379611036565b6000611383611012565b805460ff1916600117815590507f62e78cea01bee320cd4e420270b5ea74000d11b0c9f74754ebdbfc544b05a2586113643390565b6113c182611516565b6040516001600160a01b038316907fbc7cd75a20ee27fd9adebab32041f755214dbc6bffa90cc0225b39da2e5c2d3b90600090a2805115611406576105f58282611572565b6108696115e8565b7f9b779b17422d0df92223018b32b4d1fa46e071723d6817e2486d003becc55f0090565b60005b81811015610b62576040516340d097c360e01b81526001600160a01b038416906340d097c3906114699087906004016117f9565b600060405180830381600087803b15801561148357600080fd5b505af1158015611497573d6000803e3d6000fd5b5050600190920191506114359050565b6114af611607565b6109a057604051631afcd79f60e31b815260040160405180910390fd5b610db66114a7565b600081815b8481101561150d57611503828787848181106114f7576114f7611c4f565b90506020020135611621565b91506001016114d9565b50949350505050565b806001600160a01b03163b6000036115435780604051634c9c8ce360e01b8152600401610c2991906117f9565b600080516020611d3383398151915280546001600160a01b0319166001600160a01b0392909216919091179055565b6060600080846001600160a01b03168460405161158f9190611d16565b600060405180830381855af49150503d80600081146115ca576040519150601f19603f3d011682016040523d82523d6000602084013e6115cf565b606091505b50915091506115df85838361164d565b95945050505050565b34156109a05760405163b398979f60e01b815260040160405180910390fd5b600061161161126a565b54600160401b900460ff16919050565b600081831061163d576000828152602084905260409020610cf7565b5060009182526020526040902090565b6060826116625761165d826116a0565b610cf7565b815115801561167957506001600160a01b0384163b155b156116995783604051639996b31560e01b8152600401610c2991906117f9565b5080610cf7565b8051156116b05780518082602001fd5b604051630a12f52160e11b815260040160405180910390fd5b634e487b7160e01b600052604160045260246000fd5b604051601f8201601f191681016001600160401b0381118282101715611707576117076116c9565b604052919050565b60006001600160401b03831115611728576117286116c9565b61173b601f8401601f19166020016116df565b905082815283838301111561174f57600080fd5b828260208301376000602084830101529392505050565b600082601f83011261177757600080fd5b610cf78383356020850161170f565b60006020828403121561179857600080fd5b81356001600160401b038111156117ae57600080fd5b6117ba84828501611766565b949350505050565b80356001600160a01b03811681146117d957600080fd5b919050565b6000602082840312156117f057600080fd5b610cf7826117c2565b6001600160a01b0391909116815260200190565b6000806040838503121561182057600080fd5b50508035926020909101359150565b6000806040838503121561184257600080fd5b61184b836117c2565b915060208301356001600160401b0381111561186657600080fd5b61187285828601611766565b9150509250929050565b60005b8381101561189757818101518382015260200161187f565b50506000910152565b600081518084526118b881602086016020860161187c565b601f01601f19169290920160200192915050565b602081526000610cf760208301846118a0565b60008083601f8401126118f157600080fd5b5081356001600160401b0381111561190857600080fd5b6020830191508360208260051b850101111561192357600080fd5b9250929050565b60008083601f84011261193c57600080fd5b5081356001600160401b0381111561195357600080fd5b60208301915083602082850101111561192357600080fd5b60008060008060006060868803121561198357600080fd5b85356001600160401b038082111561199a57600080fd5b6119a689838a016118df565b90975095506020880135945060408801359150808211156119c657600080fd5b506119d38882890161192a565b969995985093965092949392505050565b6000602082840312156119f657600080fd5b5035919050565b60008060408385031215611a1057600080fd5b82356001600160401b03811115611a2657600080fd5b8301601f81018513611a3757600080fd5b611a468582356020840161170f565b925050611a55602084016117c2565b90509250929050565b600080600060408486031215611a7357600080fd5b83356001600160401b03811115611a8957600080fd5b611a95868287016118df565b909790965060209590950135949350505050565b600060208284031215611abb57600080fd5b81358015158114610cf757600080fd5b60008060008060008060808789031215611ae457600080fd5b611aed876117c2565b955060208701356001600160401b0380821115611b0957600080fd5b611b158a838b016118df565b9097509550604089013594506060890135915080821115611b3557600080fd5b50611b4289828a0161192a565b979a9699509497509295939492505050565b600080600060608486031215611b6957600080fd5b611b72846117c2565b92506020840135915060408401356001600160401b03811115611b9457600080fd5b611ba086828701611766565b9150509250925092565b60006020808385031215611bbd57600080fd5b82516001600160401b0380821115611bd457600080fd5b818501915085601f830112611be857600080fd5b815181811115611bfa57611bfa6116c9565b8060051b9150611c0b8483016116df565b8181529183018401918481019088841115611c2557600080fd5b938501935b83851015611c4357845182529385019390850190611c2a565b98975050505050505050565b634e487b7160e01b600052603260045260246000fd5b6001600160a01b0385811682528416602082015260408101839052608060608201819052600090611c98908301846118a0565b9695505050505050565b600060608284031215611cb457600080fd5b604051606081018181106001600160401b0382111715611cd657611cd66116c9565b80604052508251815260208301516020820152604083015160408201528091505092915050565b600060208284031215611d0f57600080fd5b5051919050565b60008251611d2881846020870161187c565b919091019291505056fe360894a13ba1a3210667c828492db98dca3e2076cc3735a920a3ca505d382bbca264697066735822122084678f349de95e5987dd2c1e14407ae369d06bc63303920d4815fe8350112c6b64736f6c63430008180033",
  "devdoc": {
    "errors": {
      "AddressEmptyCode(address)": [
        {
          "details": "There's no code at `target` (it is not a contract)."
        }
      ],
      "ERC1967InvalidImplementation(address)": [
        {
          "details": "The `implementation` of the proxy is invalid."
        }
      ],
      "ERC1967NonPayable()": [
        {
          "details": "An upgrade function sees `msg.value > 0` that may be lost."
        }
      ],
      "EnforcedPause()": [
        {
          "details": "The operation failed because the contract is paused."
        }
      ],
      "ExpectedPause()": [
        {
          "details": "The operation failed because the contract is not paused."
        }
      ],
      "FailedInnerCall()": [
        {
          "details": "A call to an address target failed. The target may have reverted."
        }
      ],
      "InvalidInitialization()": [
        {
          "details": "The contract is already initialized."
        }
      ],
      "NotInitializing()": [
        {
          "details": "The contract is not initializing."
        }
      ],
      "OwnableInvalidOwner(address)": [
        {
          "details": "The owner is not a valid owner account. (eg. `address(0)`)"
        }
      ],
      "OwnableUnauthorizedAccount(address)": [
        {
          "details": "The caller account is not authorized to perform an operation."
        }
      ],
      "ReentrancyGuardReentrantCall()": [
        {
          "details": "Unauthorized reentrant call."
        }
      ],
      "UUPSUnauthorizedCallContext()": [
        {
          "details": "The call is from an unauthorized context."
        }
      ],
      "UUPSUnsupportedProxiableUUID(bytes32)": [
        {
          "details": "The storage `slot` is unsupported as a UUID."
        }
      ]
    },
    "events": {
      "Initialized(uint64)": {
        "details": "Triggered when the contract has been initialized or reinitialized."
      },
      "Paused(address)": {
        "details": "Emitted when the pause is triggered by `account`."
      },
      "Unpaused(address)": {
        "details": "Emitted when the pause is lifted by `account`."
      },
      "Upgraded(address)": {
        "details": "Emitted when the implementation is upgraded."
      }
    },
    "kind": "dev",
    "methods": {
      "owner()": {
        "details": "Returns the address of the current owner."
      },
      "paused()": {
        "details": "Returns true if the contract is paused, and false otherwise."
      },
      "proxiableUUID()": {
        "details": "Implementation of the ERC1822 {proxiableUUID} function. This returns the storage slot used by the implementation. It is used to validate the implementation's compatibility when performing an upgrade. IMPORTANT: A proxy pointing at a proxiable contract should not be considered proxiable itself, because this risks bricking a proxy that upgrades to it, by delegating to itself until out of gas. Thus it is critical that this function revert if invoked through a proxy. This is guaranteed by the `notDelegated` modifier."
      },
      "renounceOwnership()": {
        "details": "Leaves the contract without owner. It will not be possible to call `onlyOwner` functions. Can only be called by the current owner. NOTE: Renouncing ownership will leave the contract without an owner, thereby disabling any functionality that is only available to the owner."
      },
      "transferOwnership(address)": {
        "details": "Transfers ownership of the contract to a new account (`newOwner`). Can only be called by the current owner."
      },
      "upgradeToAndCall(address,bytes)": {
        "custom:oz-upgrades-unsafe-allow-reachable": "delegatecall",
        "details": "Upgrade the implementation of the proxy to `newImplementation`, and subsequently execute the function call encoded in `data`. Calls {_authorizeUpgrade}. Emits an {Upgraded} event."
      }
    },
    "version": 1
  },
  "userdoc": {
    "kind": "user",
    "methods": {},
    "version": 1
  },
  "storageLayout": {
    "storage": [],
    "types": null
  }
}