{
  "address": "0x2b3224D080452276a76690341e5Cfa81A945a985",
  "abi": [
    {
      "inputs": [],
      "name": "Create2EmptyBytecode",
      "type": "error"
    },
    {
      "inputs": [],
      "name": "Create2FailedDeployment",
      "type": "error"
    },
    {
      "inputs": [
        {
          "internalType": "uint256",
          "name": "balance",
          "type": "uint256"
        },
        {
          "internalType": "uint256",
          "name": "needed",
          "type": "uint256"
        }
      ],
      "name": "Create2InsufficientBalance",
      "type": "error"
    },
    {
      "inputs": [],
      "name": "UnsupportedOperation",
      "type": "error"
    },
    {
      "inputs": [
        {
          "internalType": "enum MDType",
          "name": "mdType",
          "type": "uint8"
        },
        {
          "internalType": "string",
          "name": "projectId",
          "type": "string"
        }
      ],
      "name": "deploy",
      "outputs": [
        {
          "internalType": "address",
          "name": "instance",
          "type": "address"
        }
      ],
      "stateMutability": "nonpayable",
      "type": "function"
    },
    {
      "inputs": [
        {
          "internalType": "enum MDType",
          "name": "mdType",
          "type": "uint8"
        },
        {
          "internalType": "string",
          "name": "projectId",
          "type": "string"
        }
      ],
      "name": "simulateDeploy",
      "outputs": [
        {
          "internalType": "address",
          "name": "instance",
          "type": "address"
        }
      ],
      "stateMutability": "view",
      "type": "function"
    },
    {
      "inputs": [],
      "name": "version",
      "outputs": [
        {
          "internalType": "string",
          "name": "",
          "type": "string"
        }
      ],
      "stateMutability": "pure",
      "type": "function"
    }
  ],
  "transactionHash": "0xa113572174d91255bf48ac9d35efaa0903fbe3e2a8c9bb982652974a27cc02d8",
  "args": [],
  "numDeployments": 1,
  "solcInputHash": "23bc5561dfde5fc7a99aa316c1995ac0",
  "bytecode": "0x608060405234801561001057600080fd5b50615db6806100206000396000f3fe608060405234801561001057600080fd5b50600436106100415760003560e01c806318353d761461004657806354fd4d5014610076578063cfcf429a1461009d575b600080fd5b61005961005436600461035d565b6100b0565b6040516001600160a01b0390911681526020015b60405180910390f35b6040805180820182526005815264302e302e3160d81b6020820152905161006d919061040a565b6100596100ab36600461035d565b61015d565b6000806100bc856101cc565b90506100f2600085856040516020016100d692919061043d565b6040516020818303038152906040528051906020012083610279565b604051631ec5a31160e31b81529092506001600160a01b0383169063f62d188890610123908790879060040161043d565b600060405180830381600087803b15801561013d57600080fd5b505af1158015610151573d6000803e3d6000fd5b50505050509392505050565b600080610169856101cc565b90506101c3848460405160200161018192919061043d565b60405160208183030381529060405280519060200120826040516020016101a8919061046c565b60405160208183030381529060405280519060200120610304565b95945050505050565b606060008260028111156101e2576101e2610488565b03610210576040516101f660208201610336565b601f1982820381018352601f909101166040529050919050565b600182600281111561022457610224610488565b03610238576040516101f660208201610343565b600282600281111561024c5761024c610488565b03610260576040516101f660208201610350565b604051639ba6061b60e01b815260040160405180910390fd5b6000834710156102a95760405163392efb2b60e21b81524760048201526024810185905260440160405180910390fd5b81516000036102cb57604051631328927760e21b815260040160405180910390fd5b8282516020840186f590506001600160a01b0381166102fd57604051633a0ba96160e11b815260040160405180910390fd5b9392505050565b60006102fd8383306000604051836040820152846020820152828152600b8101905060ff815360559020949350505050565b611e6f8061049f83390190565b611cfa8061230e83390190565b611d798061400883390190565b60008060006040848603121561037257600080fd5b83356003811061038157600080fd5b9250602084013567ffffffffffffffff8082111561039e57600080fd5b818601915086601f8301126103b257600080fd5b8135818111156103c157600080fd5b8760208285010111156103d357600080fd5b6020830194508093505050509250925092565b60005b838110156104015781810151838201526020016103e9565b50506000910152565b60208152600082518060208401526104298160408501602087016103e6565b601f01601f19169190910160400192915050565b60208152816020820152818360408301376000818301604090810191909152601f909201601f19160101919050565b6000825161047e8184602087016103e6565b9190910192915050565b634e487b7160e01b600052602160045260246000fdfe60a06040523060805234801561001457600080fd5b5046617a69146100265761002661002b565b6100dd565b7ff0c57e16840df040f15088dc2f81fe391c3923bec73e23a9662efc9c229c6a00805468010000000000000000900460ff161561007b5760405163f92ee8a960e01b815260040160405180910390fd5b80546001600160401b03908116146100da5780546001600160401b0319166001600160401b0390811782556040519081527fc7f505b2f371ae2175ee4913f4499e1f2633a7b5936321eed1cdaeb6115181d29060200160405180910390a15b50565b608051611d686200010760003960008181610e2701528181610e500152610f960152611d686000f3fe6080604052600436106101b75760003560e01c80636e98be7f116100ec578063e0870b041161008a578063edd642e811610064578063edd642e8146104ef578063f2fde38b14610504578063f62d188814610524578063fec0e0f11461054457600080fd5b8063e0870b041461048f578063e1696957146104af578063edbe2a21146104cf57600080fd5b8063972a2a62116100c6578063972a2a6214610409578063ad3cb1cc14610429578063bc8fbbf81461045a578063bedb86fb1461046f57600080fd5b80636e98be7f14610397578063715018a6146103b75780638da5cb5b146103cc57600080fd5b80634f1ef28611610159578063557ed1ba11610133578063557ed1ba146103075780635c975abb146103315780635ca1e1651461036257806367ab16d61461037757600080fd5b80634f1ef2861461029a57806352d1902d146102ad57806354fd4d50146102d057600080fd5b80632445678111610195578063244567811461022557806332da13291461023a5780633c8949b31461025a5780633dfd38731461027a57600080fd5b8063144fa6d7146101bc57806321df0da7146101de57806322e0ab1614610210575b600080fd5b3480156101c857600080fd5b506101dc6101d736600461174d565b610586565b005b3480156101ea57600080fd5b506101f361061a565b6040516001600160a01b0390911681526020015b60405180910390f35b34801561021c57600080fd5b506101f3610638565b34801561023157600080fd5b506101dc610656565b34801561024657600080fd5b506101dc610255366004611768565b6106a6565b34801561026657600080fd5b506101dc61027536600461174d565b610724565b34801561028657600080fd5b506101dc61029536600461174d565b610784565b6101dc6102a8366004611835565b6107d2565b3480156102b957600080fd5b506102c26107f1565b604051908152602001610207565b3480156102dc57600080fd5b50604080518082019091526005815264181718171960d91b60208201525b60405161020791906118d2565b34801561031357600080fd5b5061031c61080e565b60408051928352602083019190915201610207565b34801561033d57600080fd5b50600080516020611cf38339815191525460ff165b6040519015158152602001610207565b34801561036e57600080fd5b506102c2610830565b34801561038357600080fd5b506101dc610392366004611971565b610845565b3480156103a357600080fd5b506103526103b23660046119ea565b6108ee565b3480156103c357600080fd5b506101dc61090c565b3480156103d857600080fd5b507f9016d09d72d40fdae2fd8ceac6b6234c7706214fd39c1cd1e609a0528c199300546001600160a01b03166101f3565b34801561041557600080fd5b506101dc610424366004611a03565b610920565b34801561043557600080fd5b506102fa604051806040016040528060058152602001640352e302e360dc1b81525081565b34801561046657600080fd5b506101dc610989565b34801561047b57600080fd5b506101dc61048a366004611a5c565b6109e5565b34801561049b57600080fd5b506101dc6104aa366004611a79565b610a02565b3480156104bb57600080fd5b506102c26104ca366004611b02565b610afc565b3480156104db57600080fd5b506101dc6104ea366004611768565b610b35565b3480156104fb57600080fd5b50610352610bcd565b34801561051057600080fd5b506101dc61051f36600461174d565b610be5565b34801561053057600080fd5b506101dc61053f366004611b58565b610c20565b34801561055057600080fd5b5061056461055f366004611ba8565b610d74565b6040805182518152602080840151908201529181015190820152606001610207565b61058e610db2565b610596610df8565b6006015460ff16156105bb57604051630f78294960e11b815260040160405180910390fd5b806105c4610df8565b60020180546001600160a01b0319166001600160a01b0392831617905560405190821681527fa07c91c183e42229e705a9795a1c06d76528b673788b849597364528c96eefb7906020015b60405180910390a150565b600080610625610df8565b600201546001600160a01b031692915050565b600080610643610df8565b600301546001600160a01b031692915050565b61065e610db2565b6000610668610df8565b60068101805460ff191660011790556040519091507f4d59dcc3a0812525cd8c41f1023bc183efcbd84e7d9e1c352376126e6ef489fc90600090a150565b6106ae610db2565b6106b6610df8565b6006015460ff16156106db57604051630f78294960e11b815260040160405180910390fd5b60006106e5610df8565b60048101849055600581018390556040519091507f34ad48f58870e0328df77bc8f5551c5bd1bb531e8d975bba89341e44a848774890600090a1505050565b61072c610db2565b80610735610df8565b60030180546001600160a01b0319166001600160a01b0392831617905560405190821681527f9ca1bfcac82ee1107a485dd1336f6b73e33bdd7f01445200703a0a6d79f5d4e59060200161060f565b61078c610db2565b610794610df8565b6006015460ff16156107b957604051630f78294960e11b815260040160405180910390fd5b604051639ba6061b60e01b815260040160405180910390fd5b6107da610e1c565b6107e382610ec1565b6107ed8282610ec9565b5050565b60006107fb610f8b565b50600080516020611cd383398151915290565b600080600061081b610df8565b90508060040154816005015492509250509091565b60008061083b610df8565b6001015492915050565b61084d610fd4565b610855610df8565b6006015460ff16610879576040516313b311cb60e21b815260040160405180910390fd5b610881610df8565b6004015442108061089c5750610895610df8565b6005015442115b156108ba5760405163018287d760e31b815260040160405180910390fd5b6108c2611005565b6108d033868686868661103d565b6108e76001600080516020611d1383398151915255565b5050505050565b60006108f8610df8565b600092835260205250604090205460ff1690565b610914610db2565b61091e60006111bc565b565b600061092a610df8565b9050610935826108ee565b1561095357604051630725855960e11b815260040160405180910390fd5b600181015461096690859085908561122d565b610983576040516309bde33960e01b815260040160405180910390fd5b50505050565b610991611245565b610999610db2565b60006109a3610df8565b6000600182018190556002820180546001600160a01b0319908116909155600383018054909116905560048201819055600582015590506109e261090c565b50565b6109ed610db2565b806109fa576109e2611275565b6109e26112cf565b610a0a610fd4565b610a12610df8565b600301546001600160a01b0316336001600160a01b031614610a5a57335b60405163118cdaa760e01b81526001600160a01b0390911660048201526024015b60405180910390fd5b610a62610df8565b6006015460ff16610a86576040516313b311cb60e21b815260040160405180910390fd5b610a8e610df8565b60040154421080610aa95750610aa2610df8565b6005015442115b15610ac75760405163018287d760e31b815260040160405180910390fd5b610acf611005565b610add86868686868661103d565b610af46001600080516020611d1383398151915255565b505050505050565b600030848484604051602001610b159493929190611bdc565b6040516020818303038152906040528051906020012090505b9392505050565b610b3d610db2565b610b45610df8565b6006015460ff1615610b6a57604051630f78294960e11b815260040160405180910390fd5b42811015610b8b576040516309ba674360e41b815260040160405180910390fd5b6000610b95610df8565b600181018490556040519091507fbde4c8951ecef1c36132fda9f679f7489d81c352c686e6cb94eef24190bb33cb90600090a1505050565b600080610bd8610df8565b6006015460ff1692915050565b610bed610db2565b6001600160a01b038116610c1757604051631e4fbdf760e01b815260006004820152602401610a51565b6109e2816111bc565b7ff0c57e16840df040f15088dc2f81fe391c3923bec73e23a9662efc9c229c6a008054600160401b810460ff1615906001600160401b0316600081158015610c655750825b90506000826001600160401b03166001148015610c815750303b155b905081158015610c8f575080155b15610cad5760405163f92ee8a960e01b815260040160405180910390fd5b845467ffffffffffffffff191660011785558315610cd757845460ff60401b1916600160401b1785555b610ce033611318565b610ce8611329565b610cf061134a565b7f7bc2a48a4a566e237a12186f19d985b0f76afc9d5290601edac19876253670c286604051610d1f91906118d2565b60405180910390a18315610af457845460ff60401b19168555604051600181527fc7f505b2f371ae2175ee4913f4499e1f2633a7b5936321eed1cdaeb6115181d29060200160405180910390a1505050505050565b610d9860405180606001604052806000815260200160008152602001600081525090565b81806020019051810190610dac9190611c0f565b92915050565b33610de47f9016d09d72d40fdae2fd8ceac6b6234c7706214fd39c1cd1e609a0528c199300546001600160a01b031690565b6001600160a01b03161461091e5733610a30565b7f452bdf2c9fe836ad357e55ed0859c19d2ac2a2c151d216523e3d37a8b9a03f0090565b306001600160a01b037f0000000000000000000000000000000000000000000000000000000000000000161480610ea357507f00000000000000000000000000000000000000000000000000000000000000006001600160a01b0316610e97600080516020611cd3833981519152546001600160a01b031690565b6001600160a01b031614155b1561091e5760405163703e46dd60e11b815260040160405180910390fd5b6109e2610db2565b816001600160a01b03166352d1902d6040518163ffffffff1660e01b8152600401602060405180830381865afa925050508015610f23575060408051601f3d908101601f19168201909252610f2091810190611c6a565b60015b610f4b57604051634c9c8ce360e01b81526001600160a01b0383166004820152602401610a51565b600080516020611cd38339815191528114610f7c57604051632a87526960e21b815260048101829052602401610a51565b610f868383611352565b505050565b306001600160a01b037f0000000000000000000000000000000000000000000000000000000000000000161461091e5760405163703e46dd60e11b815260040160405180910390fd5b600080516020611cf38339815191525460ff161561091e5760405163d93c066560e01b815260040160405180910390fd5b600080516020611d1383398151915280546001190161103757604051633ee5aeb560e01b815260040160405180910390fd5b60029055565b6000611080878585858080601f016020809104026020016040519081016040528093929190818152602001838380828437600092019190915250610afc92505050565b905061108d868683610920565b6001611097610df8565b600083815260209182526040808220805460ff1916941515949094179093558251601f8601839004830281018301909352848352916110f0918690869081908401838280828437600092019190915250610d7492505050565b9050428160200151111561111757604051633000f64760e01b815260040160405180910390fd5b61113d88611123610df8565b6002015460408401516001600160a01b03909116906113a8565b7f9780ca5401356db2895e17979114ec3dfd012f98c5e620049726a235a2a5d71188611167610df8565b6002015460408481015181516001600160a01b0394851681529390921660208401528201889052606082015260800160405180910390a15050505050505050565b6001600080516020611d1383398151915255565b7f9016d09d72d40fdae2fd8ceac6b6234c7706214fd39c1cd1e609a0528c19930080546001600160a01b031981166001600160a01b03848116918217845560405192169182907f8be0079c531659141344cd1fd0a4f28419497f9722a3daafe3b4186f6b6457e090600090a3505050565b60008261123b8686856113bc565b1495945050505050565b600080516020611cf38339815191525460ff1661091e57604051638dfc202b60e01b815260040160405180910390fd5b61127d611245565b600080516020611cf3833981519152805460ff191681557f5db9ee0a495bf2e6ff9c91a7834c1ba4fdd244a5e8aa4e537bd38aeae4b073aa335b6040516001600160a01b03909116815260200161060f565b6112d7610fd4565b600080516020611cf3833981519152805460ff191660011781557f62e78cea01bee320cd4e420270b5ea74000d11b0c9f74754ebdbfc544b05a258336112b7565b6113206113fe565b6109e281611447565b6113316113fe565b600080516020611cf3833981519152805460ff19169055565b6111a86113fe565b61135b8261144f565b6040516001600160a01b038316907fbc7cd75a20ee27fd9adebab32041f755214dbc6bffa90cc0225b39da2e5c2d3b90600090a28051156113a057610f8682826114b4565b6107ed61152a565b610f866001600160a01b0383168483611549565b600081815b848110156113f5576113eb828787848181106113df576113df611c83565b9050602002013561159b565b91506001016113c1565b50949350505050565b7ff0c57e16840df040f15088dc2f81fe391c3923bec73e23a9662efc9c229c6a0054600160401b900460ff1661091e57604051631afcd79f60e31b815260040160405180910390fd5b610bed6113fe565b806001600160a01b03163b60000361148557604051634c9c8ce360e01b81526001600160a01b0382166004820152602401610a51565b600080516020611cd383398151915280546001600160a01b0319166001600160a01b0392909216919091179055565b6060600080846001600160a01b0316846040516114d19190611c99565b600060405180830381855af49150503d806000811461150c576040519150601f19603f3d011682016040523d82523d6000602084013e611511565b606091505b50915091506115218583836115c7565b95945050505050565b341561091e5760405163b398979f60e01b815260040160405180910390fd5b604080516001600160a01b038416602482015260448082018490528251808303909101815260649091019091526020810180516001600160e01b031663a9059cbb60e01b179052610f86908490611623565b60008183106115b7576000828152602084905260409020610b2e565b5060009182526020526040902090565b6060826115dc576115d782611686565b610b2e565b81511580156115f357506001600160a01b0384163b155b1561161c57604051639996b31560e01b81526001600160a01b0385166004820152602401610a51565b5080610b2e565b60006116386001600160a01b038416836116af565b9050805160001415801561165d57508080602001905181019061165b9190611cb5565b155b15610f8657604051635274afe760e01b81526001600160a01b0384166004820152602401610a51565b8051156116965780518082602001fd5b604051630a12f52160e11b815260040160405180910390fd5b6060610b2e8383600084600080856001600160a01b031684866040516116d59190611c99565b60006040518083038185875af1925050503d8060008114611712576040519150601f19603f3d011682016040523d82523d6000602084013e611717565b606091505b50915091506117278683836115c7565b9695505050505050565b80356001600160a01b038116811461174857600080fd5b919050565b60006020828403121561175f57600080fd5b610b2e82611731565b6000806040838503121561177b57600080fd5b50508035926020909101359150565b634e487b7160e01b600052604160045260246000fd5b60006001600160401b03808411156117ba576117ba61178a565b604051601f8501601f19908116603f011681019082821181831017156117e2576117e261178a565b816040528093508581528686860111156117fb57600080fd5b858560208301376000602087830101525050509392505050565b600082601f83011261182657600080fd5b610b2e838335602085016117a0565b6000806040838503121561184857600080fd5b61185183611731565b915060208301356001600160401b0381111561186c57600080fd5b61187885828601611815565b9150509250929050565b60005b8381101561189d578181015183820152602001611885565b50506000910152565b600081518084526118be816020860160208601611882565b601f01601f19169290920160200192915050565b602081526000610b2e60208301846118a6565b60008083601f8401126118f757600080fd5b5081356001600160401b0381111561190e57600080fd5b6020830191508360208260051b850101111561192957600080fd5b9250929050565b60008083601f84011261194257600080fd5b5081356001600160401b0381111561195957600080fd5b60208301915083602082850101111561192957600080fd5b60008060008060006060868803121561198957600080fd5b85356001600160401b03808211156119a057600080fd5b6119ac89838a016118e5565b90975095506020880135945060408801359150808211156119cc57600080fd5b506119d988828901611930565b969995985093965092949392505050565b6000602082840312156119fc57600080fd5b5035919050565b600080600060408486031215611a1857600080fd5b83356001600160401b03811115611a2e57600080fd5b611a3a868287016118e5565b909790965060209590950135949350505050565b80151581146109e257600080fd5b600060208284031215611a6e57600080fd5b8135610b2e81611a4e565b60008060008060008060808789031215611a9257600080fd5b611a9b87611731565b955060208701356001600160401b0380821115611ab757600080fd5b611ac38a838b016118e5565b9097509550604089013594506060890135915080821115611ae357600080fd5b50611af089828a01611930565b979a9699509497509295939492505050565b600080600060608486031215611b1757600080fd5b611b2084611731565b92506020840135915060408401356001600160401b03811115611b4257600080fd5b611b4e86828701611815565b9150509250925092565b600060208284031215611b6a57600080fd5b81356001600160401b03811115611b8057600080fd5b8201601f81018413611b9157600080fd5b611ba0848235602084016117a0565b949350505050565b600060208284031215611bba57600080fd5b81356001600160401b03811115611bd057600080fd5b611ba084828501611815565b6001600160a01b0385811682528416602082015260408101839052608060608201819052600090611727908301846118a6565b600060608284031215611c2157600080fd5b604051606081018181106001600160401b0382111715611c4357611c4361178a565b80604052508251815260208301516020820152604083015160408201528091505092915050565b600060208284031215611c7c57600080fd5b5051919050565b634e487b7160e01b600052603260045260246000fd5b60008251611cab818460208701611882565b9190910192915050565b600060208284031215611cc757600080fd5b8151610b2e81611a4e56fe360894a13ba1a3210667c828492db98dca3e2076cc3735a920a3ca505d382bbccd5ed15c6e187e77e9aee88184c21f4f2182ab5827cb3b7e07fbedcd63f033009b779b17422d0df92223018b32b4d1fa46e071723d6817e2486d003becc55f00a264697066735822122049766eb5e92d86c0b0ddcbbe864e4c577f62cbe5b5e54211443f49111aecf05764736f6c6343000818003360a06040523060805234801561001457600080fd5b5046617a69146100265761002661002b565b6100dd565b7ff0c57e16840df040f15088dc2f81fe391c3923bec73e23a9662efc9c229c6a00805468010000000000000000900460ff161561007b5760405163f92ee8a960e01b815260040160405180910390fd5b80546001600160401b03908116146100da5780546001600160401b0319166001600160401b0390811782556040519081527fc7f505b2f371ae2175ee4913f4499e1f2633a7b5936321eed1cdaeb6115181d29060200160405180910390a15b50565b608051611bf461010660003960008181610da201528181610dcb0152610f110152611bf46000f3fe6080604052600436106101b75760003560e01c80636e98be7f116100ec578063e0870b041161008a578063edd642e811610064578063edd642e8146104ef578063f2fde38b14610504578063f62d188814610524578063fec0e0f11461054457600080fd5b8063e0870b041461048f578063e1696957146104af578063edbe2a21146104cf57600080fd5b8063972a2a62116100c6578063972a2a6214610409578063ad3cb1cc14610429578063bc8fbbf81461045a578063bedb86fb1461046f57600080fd5b80636e98be7f14610397578063715018a6146103b75780638da5cb5b146103cc57600080fd5b80634f1ef28611610159578063557ed1ba11610133578063557ed1ba146103075780635c975abb146103315780635ca1e1651461036257806367ab16d61461037757600080fd5b80634f1ef2861461029a57806352d1902d146102ad57806354fd4d50146102d057600080fd5b80632445678111610195578063244567811461022557806332da13291461023a5780633c8949b31461025a5780633dfd38731461027a57600080fd5b8063144fa6d7146101bc57806321df0da7146101de57806322e0ab1614610210575b600080fd5b3480156101c857600080fd5b506101dc6101d73660046115f5565b610586565b005b3480156101ea57600080fd5b506101f36105a7565b6040516001600160a01b0390911681526020015b60405180910390f35b34801561021c57600080fd5b506101f36105c5565b34801561023157600080fd5b506101dc6105e3565b34801561024657600080fd5b506101dc610255366004611610565b610633565b34801561026657600080fd5b506101dc6102753660046115f5565b6106b1565b34801561028657600080fd5b506101dc6102953660046115f5565b610718565b6101dc6102a83660046116dd565b61074d565b3480156102b957600080fd5b506102c261076c565b604051908152602001610207565b3480156102dc57600080fd5b50604080518082019091526005815264181718171960d91b60208201525b604051610207919061177a565b34801561031357600080fd5b5061031c610789565b60408051928352602083019190915201610207565b34801561033d57600080fd5b50600080516020611b7f8339815191525460ff165b6040519015158152602001610207565b34801561036e57600080fd5b506102c26107ab565b34801561038357600080fd5b506101dc610392366004611819565b6107c0565b3480156103a357600080fd5b506103526103b2366004611892565b610869565b3480156103c357600080fd5b506101dc610887565b3480156103d857600080fd5b507f9016d09d72d40fdae2fd8ceac6b6234c7706214fd39c1cd1e609a0528c199300546001600160a01b03166101f3565b34801561041557600080fd5b506101dc6104243660046118ab565b61089b565b34801561043557600080fd5b506102fa604051806040016040528060058152602001640352e302e360dc1b81525081565b34801561046657600080fd5b506101dc610904565b34801561047b57600080fd5b506101dc61048a3660046118f6565b610960565b34801561049b57600080fd5b506101dc6104aa366004611918565b61097d565b3480156104bb57600080fd5b506102c26104ca3660046119a1565b610a77565b3480156104db57600080fd5b506101dc6104ea366004611610565b610ab0565b3480156104fb57600080fd5b50610352610b48565b34801561051057600080fd5b506101dc61051f3660046115f5565b610b60565b34801561053057600080fd5b506101dc61053f3660046119f7565b610b9b565b34801561055057600080fd5b5061056461055f366004611a47565b610cef565b6040805182518152602080840151908201529181015190820152606001610207565b61058e610d2d565b604051639ba6061b60e01b815260040160405180910390fd5b6000806105b2610d73565b600201546001600160a01b031692915050565b6000806105d0610d73565b600301546001600160a01b031692915050565b6105eb610d2d565b60006105f5610d73565b60068101805460ff191660011790556040519091507f4d59dcc3a0812525cd8c41f1023bc183efcbd84e7d9e1c352376126e6ef489fc90600090a150565b61063b610d2d565b610643610d73565b6006015460ff161561066857604051630f78294960e11b815260040160405180910390fd5b6000610672610d73565b60048101849055600581018390556040519091507f34ad48f58870e0328df77bc8f5551c5bd1bb531e8d975bba89341e44a848774890600090a1505050565b6106b9610d2d565b806106c2610d73565b60030180546001600160a01b0319166001600160a01b0392831617905560405190821681527f9ca1bfcac82ee1107a485dd1336f6b73e33bdd7f01445200703a0a6d79f5d4e5906020015b60405180910390a150565b610720610d2d565b610728610d73565b6006015460ff161561058e57604051630f78294960e11b815260040160405180910390fd5b610755610d97565b61075e82610e3c565b6107688282610e44565b5050565b6000610776610f06565b50600080516020611b5f83398151915290565b6000806000610796610d73565b90508060040154816005015492509250509091565b6000806107b6610d73565b6001015492915050565b6107c8610f4f565b6107d0610d73565b6006015460ff166107f4576040516313b311cb60e21b815260040160405180910390fd5b6107fc610d73565b600401544210806108175750610810610d73565b6005015442115b156108355760405163018287d760e31b815260040160405180910390fd5b61083d610f80565b61084b338686868686610fb8565b6108626001600080516020611b9f83398151915255565b5050505050565b6000610873610d73565b600092835260205250604090205460ff1690565b61088f610d2d565b6108996000611137565b565b60006108a5610d73565b90506108b082610869565b156108ce57604051630725855960e11b815260040160405180910390fd5b60018101546108e19085908590856111a8565b6108fe576040516309bde33960e01b815260040160405180910390fd5b50505050565b61090c6111c0565b610914610d2d565b600061091e610d73565b6000600182018190556002820180546001600160a01b03199081169091556003830180549091169055600482018190556005820155905061095d610887565b50565b610968610d2d565b806109755761095d6111f0565b61095d61124a565b610985610f4f565b61098d610d73565b600301546001600160a01b0316336001600160a01b0316146109d557335b60405163118cdaa760e01b81526001600160a01b0390911660048201526024015b60405180910390fd5b6109dd610d73565b6006015460ff16610a01576040516313b311cb60e21b815260040160405180910390fd5b610a09610d73565b60040154421080610a245750610a1d610d73565b6005015442115b15610a425760405163018287d760e31b815260040160405180910390fd5b610a4a610f80565b610a58868686868686610fb8565b610a6f6001600080516020611b9f83398151915255565b505050505050565b600030848484604051602001610a909493929190611a7b565b6040516020818303038152906040528051906020012090505b9392505050565b610ab8610d2d565b610ac0610d73565b6006015460ff1615610ae557604051630f78294960e11b815260040160405180910390fd5b42811015610b06576040516309ba674360e41b815260040160405180910390fd5b6000610b10610d73565b600181018490556040519091507fbde4c8951ecef1c36132fda9f679f7489d81c352c686e6cb94eef24190bb33cb90600090a1505050565b600080610b53610d73565b6006015460ff1692915050565b610b68610d2d565b6001600160a01b038116610b9257604051631e4fbdf760e01b8152600060048201526024016109cc565b61095d81611137565b7ff0c57e16840df040f15088dc2f81fe391c3923bec73e23a9662efc9c229c6a008054600160401b810460ff1615906001600160401b0316600081158015610be05750825b90506000826001600160401b03166001148015610bfc5750303b155b905081158015610c0a575080155b15610c285760405163f92ee8a960e01b815260040160405180910390fd5b845467ffffffffffffffff191660011785558315610c5257845460ff60401b1916600160401b1785555b610c5b33611293565b610c636112a4565b610c6b6112c5565b7f7bc2a48a4a566e237a12186f19d985b0f76afc9d5290601edac19876253670c286604051610c9a919061177a565b60405180910390a18315610a6f57845460ff60401b19168555604051600181527fc7f505b2f371ae2175ee4913f4499e1f2633a7b5936321eed1cdaeb6115181d29060200160405180910390a1505050505050565b610d1360405180606001604052806000815260200160008152602001600081525090565b81806020019051810190610d279190611ab8565b92915050565b33610d5f7f9016d09d72d40fdae2fd8ceac6b6234c7706214fd39c1cd1e609a0528c199300546001600160a01b031690565b6001600160a01b03161461089957336109ab565b7f452bdf2c9fe836ad357e55ed0859c19d2ac2a2c151d216523e3d37a8b9a03f0090565b306001600160a01b037f0000000000000000000000000000000000000000000000000000000000000000161480610e1e57507f00000000000000000000000000000000000000000000000000000000000000006001600160a01b0316610e12600080516020611b5f833981519152546001600160a01b031690565b6001600160a01b031614155b156108995760405163703e46dd60e11b815260040160405180910390fd5b61095d610d2d565b816001600160a01b03166352d1902d6040518163ffffffff1660e01b8152600401602060405180830381865afa925050508015610e9e575060408051601f3d908101601f19168201909252610e9b91810190611b13565b60015b610ec657604051634c9c8ce360e01b81526001600160a01b03831660048201526024016109cc565b600080516020611b5f8339815191528114610ef757604051632a87526960e21b8152600481018290526024016109cc565b610f0183836112cd565b505050565b306001600160a01b037f000000000000000000000000000000000000000000000000000000000000000016146108995760405163703e46dd60e11b815260040160405180910390fd5b600080516020611b7f8339815191525460ff16156108995760405163d93c066560e01b815260040160405180910390fd5b600080516020611b9f833981519152805460011901610fb257604051633ee5aeb560e01b815260040160405180910390fd5b60029055565b6000610ffb878585858080601f016020809104026020016040519081016040528093929190818152602001838380828437600092019190915250610a7792505050565b905061100886868361089b565b6001611012610d73565b600083815260209182526040808220805460ff1916941515949094179093558251601f86018390048302810183019093528483529161106b918690869081908401838280828437600092019190915250610cef92505050565b9050428160200151111561109257604051633000f64760e01b815260040160405180910390fd5b6110b88861109e610d73565b6002015460408401516001600160a01b0390911690611323565b7f9780ca5401356db2895e17979114ec3dfd012f98c5e620049726a235a2a5d711886110e2610d73565b6002015460408481015181516001600160a01b0394851681529390921660208401528201889052606082015260800160405180910390a15050505050505050565b6001600080516020611b9f83398151915255565b7f9016d09d72d40fdae2fd8ceac6b6234c7706214fd39c1cd1e609a0528c19930080546001600160a01b031981166001600160a01b03848116918217845560405192169182907f8be0079c531659141344cd1fd0a4f28419497f9722a3daafe3b4186f6b6457e090600090a3505050565b6000826111b686868561139b565b1495945050505050565b600080516020611b7f8339815191525460ff1661089957604051638dfc202b60e01b815260040160405180910390fd5b6111f86111c0565b600080516020611b7f833981519152805460ff191681557f5db9ee0a495bf2e6ff9c91a7834c1ba4fdd244a5e8aa4e537bd38aeae4b073aa335b6040516001600160a01b03909116815260200161070d565b611252610f4f565b600080516020611b7f833981519152805460ff191660011781557f62e78cea01bee320cd4e420270b5ea74000d11b0c9f74754ebdbfc544b05a25833611232565b61129b6113dd565b61095d81611426565b6112ac6113dd565b600080516020611b7f833981519152805460ff19169055565b6111236113dd565b6112d68261142e565b6040516001600160a01b038316907fbc7cd75a20ee27fd9adebab32041f755214dbc6bffa90cc0225b39da2e5c2d3b90600090a280511561131b57610f018282611493565b610768611509565b600080846001600160a01b03168360405160006040518083038185875af1925050503d8060008114611371576040519150601f19603f3d011682016040523d82523d6000602084013e611376565b606091505b5091509150818190610a6f5760405162461bcd60e51b81526004016109cc919061177a565b600081815b848110156113d4576113ca828787848181106113be576113be611b2c565b90506020020135611528565b91506001016113a0565b50949350505050565b7ff0c57e16840df040f15088dc2f81fe391c3923bec73e23a9662efc9c229c6a0054600160401b900460ff1661089957604051631afcd79f60e31b815260040160405180910390fd5b610b686113dd565b806001600160a01b03163b60000361146457604051634c9c8ce360e01b81526001600160a01b03821660048201526024016109cc565b600080516020611b5f83398151915280546001600160a01b0319166001600160a01b0392909216919091179055565b6060600080846001600160a01b0316846040516114b09190611b42565b600060405180830381855af49150503d80600081146114eb576040519150601f19603f3d011682016040523d82523d6000602084013e6114f0565b606091505b5091509150611500858383611554565b95945050505050565b34156108995760405163b398979f60e01b815260040160405180910390fd5b6000818310611544576000828152602084905260409020610aa9565b5060009182526020526040902090565b60608261156957611564826115b0565b610aa9565b815115801561158057506001600160a01b0384163b155b156115a957604051639996b31560e01b81526001600160a01b03851660048201526024016109cc565b5080610aa9565b8051156115c05780518082602001fd5b604051630a12f52160e11b815260040160405180910390fd5b80356001600160a01b03811681146115f057600080fd5b919050565b60006020828403121561160757600080fd5b610aa9826115d9565b6000806040838503121561162357600080fd5b50508035926020909101359150565b634e487b7160e01b600052604160045260246000fd5b60006001600160401b038084111561166257611662611632565b604051601f8501601f19908116603f0116810190828211818310171561168a5761168a611632565b816040528093508581528686860111156116a357600080fd5b858560208301376000602087830101525050509392505050565b600082601f8301126116ce57600080fd5b610aa983833560208501611648565b600080604083850312156116f057600080fd5b6116f9836115d9565b915060208301356001600160401b0381111561171457600080fd5b611720858286016116bd565b9150509250929050565b60005b8381101561174557818101518382015260200161172d565b50506000910152565b6000815180845261176681602086016020860161172a565b601f01601f19169290920160200192915050565b602081526000610aa9602083018461174e565b60008083601f84011261179f57600080fd5b5081356001600160401b038111156117b657600080fd5b6020830191508360208260051b85010111156117d157600080fd5b9250929050565b60008083601f8401126117ea57600080fd5b5081356001600160401b0381111561180157600080fd5b6020830191508360208285010111156117d157600080fd5b60008060008060006060868803121561183157600080fd5b85356001600160401b038082111561184857600080fd5b61185489838a0161178d565b909750955060208801359450604088013591508082111561187457600080fd5b50611881888289016117d8565b969995985093965092949392505050565b6000602082840312156118a457600080fd5b5035919050565b6000806000604084860312156118c057600080fd5b83356001600160401b038111156118d657600080fd5b6118e28682870161178d565b909790965060209590950135949350505050565b60006020828403121561190857600080fd5b81358015158114610aa957600080fd5b6000806000806000806080878903121561193157600080fd5b61193a876115d9565b955060208701356001600160401b038082111561195657600080fd5b6119628a838b0161178d565b909750955060408901359450606089013591508082111561198257600080fd5b5061198f89828a016117d8565b979a9699509497509295939492505050565b6000806000606084860312156119b657600080fd5b6119bf846115d9565b92506020840135915060408401356001600160401b038111156119e157600080fd5b6119ed868287016116bd565b9150509250925092565b600060208284031215611a0957600080fd5b81356001600160401b03811115611a1f57600080fd5b8201601f81018413611a3057600080fd5b611a3f84823560208401611648565b949350505050565b600060208284031215611a5957600080fd5b81356001600160401b03811115611a6f57600080fd5b611a3f848285016116bd565b6001600160a01b0385811682528416602082015260408101839052608060608201819052600090611aae9083018461174e565b9695505050505050565b600060608284031215611aca57600080fd5b604051606081018181106001600160401b0382111715611aec57611aec611632565b80604052508251815260208301516020820152604083015160408201528091505092915050565b600060208284031215611b2557600080fd5b5051919050565b634e487b7160e01b600052603260045260246000fd5b60008251611b5481846020870161172a565b919091019291505056fe360894a13ba1a3210667c828492db98dca3e2076cc3735a920a3ca505d382bbccd5ed15c6e187e77e9aee88184c21f4f2182ab5827cb3b7e07fbedcd63f033009b779b17422d0df92223018b32b4d1fa46e071723d6817e2486d003becc55f00a2646970667358221220a658660789cdab3a1b190901550161ee821f13936fc7ff5f91f68c524c57991d64736f6c6343000818003360a06040523060805234801561001457600080fd5b5046617a69146100265761002661002b565b6100dd565b7ff0c57e16840df040f15088dc2f81fe391c3923bec73e23a9662efc9c229c6a00805468010000000000000000900460ff161561007b5760405163f92ee8a960e01b815260040160405180910390fd5b80546001600160401b03908116146100da5780546001600160401b0319166001600160401b0390811782556040519081527fc7f505b2f371ae2175ee4913f4499e1f2633a7b5936321eed1cdaeb6115181d29060200160405180910390a15b50565b608051611c7361010660003960008181610e2701528181610e500152610f960152611c736000f3fe6080604052600436106101b75760003560e01c80636e98be7f116100ec578063e0870b041161008a578063edd642e811610064578063edd642e8146104ef578063f2fde38b14610504578063f62d188814610524578063fec0e0f11461054457600080fd5b8063e0870b041461048f578063e1696957146104af578063edbe2a21146104cf57600080fd5b8063972a2a62116100c6578063972a2a6214610409578063ad3cb1cc14610429578063bc8fbbf81461045a578063bedb86fb1461046f57600080fd5b80636e98be7f14610397578063715018a6146103b75780638da5cb5b146103cc57600080fd5b80634f1ef28611610159578063557ed1ba11610133578063557ed1ba146103075780635c975abb146103315780635ca1e1651461036257806367ab16d61461037757600080fd5b80634f1ef2861461029a57806352d1902d146102ad57806354fd4d50146102d057600080fd5b80632445678111610195578063244567811461022557806332da13291461023a5780633c8949b31461025a5780633dfd38731461027a57600080fd5b8063144fa6d7146101bc57806321df0da7146101de57806322e0ab1614610210575b600080fd5b3480156101c857600080fd5b506101dc6101d7366004611674565b610586565b005b3480156101ea57600080fd5b506101f361061a565b6040516001600160a01b0390911681526020015b60405180910390f35b34801561021c57600080fd5b506101f3610638565b34801561023157600080fd5b506101dc610656565b34801561024657600080fd5b506101dc61025536600461168f565b6106a6565b34801561026657600080fd5b506101dc610275366004611674565b610724565b34801561028657600080fd5b506101dc610295366004611674565b610784565b6101dc6102a836600461175c565b6107d2565b3480156102b957600080fd5b506102c26107f1565b604051908152602001610207565b3480156102dc57600080fd5b50604080518082019091526005815264181718171960d91b60208201525b60405161020791906117f9565b34801561031357600080fd5b5061031c61080e565b60408051928352602083019190915201610207565b34801561033d57600080fd5b50600080516020611bfe8339815191525460ff165b6040519015158152602001610207565b34801561036e57600080fd5b506102c2610830565b34801561038357600080fd5b506101dc610392366004611898565b610845565b3480156103a357600080fd5b506103526103b2366004611911565b6108ee565b3480156103c357600080fd5b506101dc61090c565b3480156103d857600080fd5b507f9016d09d72d40fdae2fd8ceac6b6234c7706214fd39c1cd1e609a0528c199300546001600160a01b03166101f3565b34801561041557600080fd5b506101dc61042436600461192a565b610920565b34801561043557600080fd5b506102fa604051806040016040528060058152602001640352e302e360dc1b81525081565b34801561046657600080fd5b506101dc610989565b34801561047b57600080fd5b506101dc61048a366004611975565b6109e5565b34801561049b57600080fd5b506101dc6104aa366004611997565b610a02565b3480156104bb57600080fd5b506102c26104ca366004611a20565b610afc565b3480156104db57600080fd5b506101dc6104ea36600461168f565b610b35565b3480156104fb57600080fd5b50610352610bcd565b34801561051057600080fd5b506101dc61051f366004611674565b610be5565b34801561053057600080fd5b506101dc61053f366004611a76565b610c20565b34801561055057600080fd5b5061056461055f366004611ac6565b610d74565b6040805182518152602080840151908201529181015190820152606001610207565b61058e610db2565b610596610df8565b6006015460ff16156105bb57604051630f78294960e11b815260040160405180910390fd5b806105c4610df8565b60020180546001600160a01b0319166001600160a01b0392831617905560405190821681527fa07c91c183e42229e705a9795a1c06d76528b673788b849597364528c96eefb7906020015b60405180910390a150565b600080610625610df8565b600201546001600160a01b031692915050565b600080610643610df8565b600301546001600160a01b031692915050565b61065e610db2565b6000610668610df8565b60068101805460ff191660011790556040519091507f4d59dcc3a0812525cd8c41f1023bc183efcbd84e7d9e1c352376126e6ef489fc90600090a150565b6106ae610db2565b6106b6610df8565b6006015460ff16156106db57604051630f78294960e11b815260040160405180910390fd5b60006106e5610df8565b60048101849055600581018390556040519091507f34ad48f58870e0328df77bc8f5551c5bd1bb531e8d975bba89341e44a848774890600090a1505050565b61072c610db2565b80610735610df8565b60030180546001600160a01b0319166001600160a01b0392831617905560405190821681527f9ca1bfcac82ee1107a485dd1336f6b73e33bdd7f01445200703a0a6d79f5d4e59060200161060f565b61078c610db2565b610794610df8565b6006015460ff16156107b957604051630f78294960e11b815260040160405180910390fd5b604051639ba6061b60e01b815260040160405180910390fd5b6107da610e1c565b6107e382610ec1565b6107ed8282610ec9565b5050565b60006107fb610f8b565b50600080516020611bde83398151915290565b600080600061081b610df8565b90508060040154816005015492509250509091565b60008061083b610df8565b6001015492915050565b61084d610fd4565b610855610df8565b6006015460ff16610879576040516313b311cb60e21b815260040160405180910390fd5b610881610df8565b6004015442108061089c5750610895610df8565b6005015442115b156108ba5760405163018287d760e31b815260040160405180910390fd5b6108c2611005565b6108d033868686868661103d565b6108e76001600080516020611c1e83398151915255565b5050505050565b60006108f8610df8565b600092835260205250604090205460ff1690565b610914610db2565b61091e60006111bc565b565b600061092a610df8565b9050610935826108ee565b1561095357604051630725855960e11b815260040160405180910390fd5b600181015461096690859085908561122d565b610983576040516309bde33960e01b815260040160405180910390fd5b50505050565b610991611245565b610999610db2565b60006109a3610df8565b6000600182018190556002820180546001600160a01b0319908116909155600383018054909116905560048201819055600582015590506109e261090c565b50565b6109ed610db2565b806109fa576109e2611275565b6109e26112cf565b610a0a610fd4565b610a12610df8565b600301546001600160a01b0316336001600160a01b031614610a5a57335b60405163118cdaa760e01b81526001600160a01b0390911660048201526024015b60405180910390fd5b610a62610df8565b6006015460ff16610a86576040516313b311cb60e21b815260040160405180910390fd5b610a8e610df8565b60040154421080610aa95750610aa2610df8565b6005015442115b15610ac75760405163018287d760e31b815260040160405180910390fd5b610acf611005565b610add86868686868661103d565b610af46001600080516020611c1e83398151915255565b505050505050565b600030848484604051602001610b159493929190611afa565b6040516020818303038152906040528051906020012090505b9392505050565b610b3d610db2565b610b45610df8565b6006015460ff1615610b6a57604051630f78294960e11b815260040160405180910390fd5b42811015610b8b576040516309ba674360e41b815260040160405180910390fd5b6000610b95610df8565b600181018490556040519091507fbde4c8951ecef1c36132fda9f679f7489d81c352c686e6cb94eef24190bb33cb90600090a1505050565b600080610bd8610df8565b6006015460ff1692915050565b610bed610db2565b6001600160a01b038116610c1757604051631e4fbdf760e01b815260006004820152602401610a51565b6109e2816111bc565b7ff0c57e16840df040f15088dc2f81fe391c3923bec73e23a9662efc9c229c6a008054600160401b810460ff1615906001600160401b0316600081158015610c655750825b90506000826001600160401b03166001148015610c815750303b155b905081158015610c8f575080155b15610cad5760405163f92ee8a960e01b815260040160405180910390fd5b845467ffffffffffffffff191660011785558315610cd757845460ff60401b1916600160401b1785555b610ce033611318565b610ce8611329565b610cf061134a565b7f7bc2a48a4a566e237a12186f19d985b0f76afc9d5290601edac19876253670c286604051610d1f91906117f9565b60405180910390a18315610af457845460ff60401b19168555604051600181527fc7f505b2f371ae2175ee4913f4499e1f2633a7b5936321eed1cdaeb6115181d29060200160405180910390a1505050505050565b610d9860405180606001604052806000815260200160008152602001600081525090565b81806020019051810190610dac9190611b37565b92915050565b33610de47f9016d09d72d40fdae2fd8ceac6b6234c7706214fd39c1cd1e609a0528c199300546001600160a01b031690565b6001600160a01b03161461091e5733610a30565b7f452bdf2c9fe836ad357e55ed0859c19d2ac2a2c151d216523e3d37a8b9a03f0090565b306001600160a01b037f0000000000000000000000000000000000000000000000000000000000000000161480610ea357507f00000000000000000000000000000000000000000000000000000000000000006001600160a01b0316610e97600080516020611bde833981519152546001600160a01b031690565b6001600160a01b031614155b1561091e5760405163703e46dd60e11b815260040160405180910390fd5b6109e2610db2565b816001600160a01b03166352d1902d6040518163ffffffff1660e01b8152600401602060405180830381865afa925050508015610f23575060408051601f3d908101601f19168201909252610f2091810190611b92565b60015b610f4b57604051634c9c8ce360e01b81526001600160a01b0383166004820152602401610a51565b600080516020611bde8339815191528114610f7c57604051632a87526960e21b815260048101829052602401610a51565b610f868383611352565b505050565b306001600160a01b037f0000000000000000000000000000000000000000000000000000000000000000161461091e5760405163703e46dd60e11b815260040160405180910390fd5b600080516020611bfe8339815191525460ff161561091e5760405163d93c066560e01b815260040160405180910390fd5b600080516020611c1e83398151915280546001190161103757604051633ee5aeb560e01b815260040160405180910390fd5b60029055565b6000611080878585858080601f016020809104026020016040519081016040528093929190818152602001838380828437600092019190915250610afc92505050565b905061108d868683610920565b6001611097610df8565b600083815260209182526040808220805460ff1916941515949094179093558251601f8601839004830281018301909352848352916110f0918690869081908401838280828437600092019190915250610d7492505050565b9050428160200151111561111757604051633000f64760e01b815260040160405180910390fd5b61113d88611123610df8565b6002015460408401516001600160a01b03909116906113a8565b7f9780ca5401356db2895e17979114ec3dfd012f98c5e620049726a235a2a5d71188611167610df8565b6002015460408481015181516001600160a01b0394851681529390921660208401528201889052606082015260800160405180910390a15050505050505050565b6001600080516020611c1e83398151915255565b7f9016d09d72d40fdae2fd8ceac6b6234c7706214fd39c1cd1e609a0528c19930080546001600160a01b031981166001600160a01b03848116918217845560405192169182907f8be0079c531659141344cd1fd0a4f28419497f9722a3daafe3b4186f6b6457e090600090a3505050565b60008261123b86868561141a565b1495945050505050565b600080516020611bfe8339815191525460ff1661091e57604051638dfc202b60e01b815260040160405180910390fd5b61127d611245565b600080516020611bfe833981519152805460ff191681557f5db9ee0a495bf2e6ff9c91a7834c1ba4fdd244a5e8aa4e537bd38aeae4b073aa335b6040516001600160a01b03909116815260200161060f565b6112d7610fd4565b600080516020611bfe833981519152805460ff191660011781557f62e78cea01bee320cd4e420270b5ea74000d11b0c9f74754ebdbfc544b05a258336112b7565b61132061145c565b6109e2816114a5565b61133161145c565b600080516020611bfe833981519152805460ff19169055565b6111a861145c565b61135b826114ad565b6040516001600160a01b038316907fbc7cd75a20ee27fd9adebab32041f755214dbc6bffa90cc0225b39da2e5c2d3b90600090a28051156113a057610f868282611512565b6107ed611588565b60005b81811015610983576040516340d097c360e01b81526001600160a01b0385811660048301528416906340d097c390602401600060405180830381600087803b1580156113f657600080fd5b505af115801561140a573d6000803e3d6000fd5b5050600190920191506113ab9050565b600081815b84811015611453576114498287878481811061143d5761143d611bab565b905060200201356115a7565b915060010161141f565b50949350505050565b7ff0c57e16840df040f15088dc2f81fe391c3923bec73e23a9662efc9c229c6a0054600160401b900460ff1661091e57604051631afcd79f60e31b815260040160405180910390fd5b610bed61145c565b806001600160a01b03163b6000036114e357604051634c9c8ce360e01b81526001600160a01b0382166004820152602401610a51565b600080516020611bde83398151915280546001600160a01b0319166001600160a01b0392909216919091179055565b6060600080846001600160a01b03168460405161152f9190611bc1565b600060405180830381855af49150503d806000811461156a576040519150601f19603f3d011682016040523d82523d6000602084013e61156f565b606091505b509150915061157f8583836115d3565b95945050505050565b341561091e5760405163b398979f60e01b815260040160405180910390fd5b60008183106115c3576000828152602084905260409020610b2e565b5060009182526020526040902090565b6060826115e8576115e38261162f565b610b2e565b81511580156115ff57506001600160a01b0384163b155b1561162857604051639996b31560e01b81526001600160a01b0385166004820152602401610a51565b5080610b2e565b80511561163f5780518082602001fd5b604051630a12f52160e11b815260040160405180910390fd5b80356001600160a01b038116811461166f57600080fd5b919050565b60006020828403121561168657600080fd5b610b2e82611658565b600080604083850312156116a257600080fd5b50508035926020909101359150565b634e487b7160e01b600052604160045260246000fd5b60006001600160401b03808411156116e1576116e16116b1565b604051601f8501601f19908116603f01168101908282118183101715611709576117096116b1565b8160405280935085815286868601111561172257600080fd5b858560208301376000602087830101525050509392505050565b600082601f83011261174d57600080fd5b610b2e838335602085016116c7565b6000806040838503121561176f57600080fd5b61177883611658565b915060208301356001600160401b0381111561179357600080fd5b61179f8582860161173c565b9150509250929050565b60005b838110156117c45781810151838201526020016117ac565b50506000910152565b600081518084526117e58160208601602086016117a9565b601f01601f19169290920160200192915050565b602081526000610b2e60208301846117cd565b60008083601f84011261181e57600080fd5b5081356001600160401b0381111561183557600080fd5b6020830191508360208260051b850101111561185057600080fd5b9250929050565b60008083601f84011261186957600080fd5b5081356001600160401b0381111561188057600080fd5b60208301915083602082850101111561185057600080fd5b6000806000806000606086880312156118b057600080fd5b85356001600160401b03808211156118c757600080fd5b6118d389838a0161180c565b90975095506020880135945060408801359150808211156118f357600080fd5b5061190088828901611857565b969995985093965092949392505050565b60006020828403121561192357600080fd5b5035919050565b60008060006040848603121561193f57600080fd5b83356001600160401b0381111561195557600080fd5b6119618682870161180c565b909790965060209590950135949350505050565b60006020828403121561198757600080fd5b81358015158114610b2e57600080fd5b600080600080600080608087890312156119b057600080fd5b6119b987611658565b955060208701356001600160401b03808211156119d557600080fd5b6119e18a838b0161180c565b9097509550604089013594506060890135915080821115611a0157600080fd5b50611a0e89828a01611857565b979a9699509497509295939492505050565b600080600060608486031215611a3557600080fd5b611a3e84611658565b92506020840135915060408401356001600160401b03811115611a6057600080fd5b611a6c8682870161173c565b9150509250925092565b600060208284031215611a8857600080fd5b81356001600160401b03811115611a9e57600080fd5b8201601f81018413611aaf57600080fd5b611abe848235602084016116c7565b949350505050565b600060208284031215611ad857600080fd5b81356001600160401b03811115611aee57600080fd5b611abe8482850161173c565b6001600160a01b0385811682528416602082015260408101839052608060608201819052600090611b2d908301846117cd565b9695505050505050565b600060608284031215611b4957600080fd5b604051606081018181106001600160401b0382111715611b6b57611b6b6116b1565b80604052508251815260208301516020820152604083015160408201528091505092915050565b600060208284031215611ba457600080fd5b5051919050565b634e487b7160e01b600052603260045260246000fd5b60008251611bd38184602087016117a9565b919091019291505056fe360894a13ba1a3210667c828492db98dca3e2076cc3735a920a3ca505d382bbccd5ed15c6e187e77e9aee88184c21f4f2182ab5827cb3b7e07fbedcd63f033009b779b17422d0df92223018b32b4d1fa46e071723d6817e2486d003becc55f00a26469706673582212205ad52d12cbc18ca8b4b997273fde80504273139218392ef1991163d9402c084064736f6c63430008180033a2646970667358221220a11051889c8a5460a7d3862adc284dccdf313ab0abb09c8424223d74de2d4dc464736f6c63430008180033",
  "devdoc": {
    "errors": {
      "Create2EmptyBytecode()": [
        {
          "details": "There's no code to deploy."
        }
      ],
      "Create2FailedDeployment()": [
        {
          "details": "The deployment failed."
        }
      ],
      "Create2InsufficientBalance(uint256,uint256)": [
        {
          "details": "Not enough balance for performing a CREATE2 deploy."
        }
      ]
    },
    "kind": "dev",
    "methods": {},
    "version": 1
  },
  "userdoc": {
    "kind": "user",
    "methods": {},
    "version": 1
  },
  "storageLayout": {
    "storage": [],
    "types": null
  }
}