{
  "address": "0xb479617105ad28e5aC10e5B3323329290c6d5b96",
  "abi": [
    {
      "inputs": [
        {
          "internalType": "address",
          "name": "target",
          "type": "address"
        }
      ],
      "name": "AddressEmptyCode",
      "type": "error"
    },
    {
      "inputs": [],
      "name": "ClaimPremature",
      "type": "error"
    },
    {
      "inputs": [
        {
          "internalType": "address",
          "name": "implementation",
          "type": "address"
        }
      ],
      "name": "ERC1967InvalidImplementation",
      "type": "error"
    },
    {
      "inputs": [],
      "name": "ERC1967NonPayable",
      "type": "error"
    },
    {
      "inputs": [],
      "name": "EnforcedPause",
      "type": "error"
    },
    {
      "inputs": [],
      "name": "ExpectedPause",
      "type": "error"
    },
    {
      "inputs": [],
      "name": "FailedInnerCall",
      "type": "error"
    },
    {
      "inputs": [],
      "name": "InvalidInitialization",
      "type": "error"
    },
    {
      "inputs": [],
      "name": "InvalidProof",
      "type": "error"
    },
    {
      "inputs": [],
      "name": "LeafUsed",
      "type": "error"
    },
    {
      "inputs": [],
      "name": "NotInitializing",
      "type": "error"
    },
    {
      "inputs": [
        {
          "internalType": "address",
          "name": "owner",
          "type": "address"
        }
      ],
      "name": "OwnableInvalidOwner",
      "type": "error"
    },
    {
      "inputs": [
        {
          "internalType": "address",
          "name": "account",
          "type": "address"
        }
      ],
      "name": "OwnableUnauthorizedAccount",
      "type": "error"
    },
    {
      "inputs": [],
      "name": "ReentrancyGuardReentrantCall",
      "type": "error"
    },
    {
      "inputs": [],
      "name": "RootExpired",
      "type": "error"
    },
    {
      "inputs": [],
      "name": "RootIsLocked",
      "type": "error"
    },
    {
      "inputs": [],
      "name": "RootNotLocked",
      "type": "error"
    },
    {
      "inputs": [],
      "name": "TimeInactive",
      "type": "error"
    },
    {
      "inputs": [],
      "name": "UUPSUnauthorizedCallContext",
      "type": "error"
    },
    {
      "inputs": [
        {
          "internalType": "bytes32",
          "name": "slot",
          "type": "bytes32"
        }
      ],
      "name": "UUPSUnsupportedProxiableUUID",
      "type": "error"
    },
    {
      "inputs": [],
      "name": "UnsupportedOperation",
      "type": "error"
    },
    {
      "anonymous": false,
      "inputs": [
        {
          "indexed": false,
          "internalType": "address",
          "name": "delegate",
          "type": "address"
        }
      ],
      "name": "ClaimDelegateSet",
      "type": "event"
    },
    {
      "anonymous": false,
      "inputs": [
        {
          "indexed": false,
          "internalType": "address",
          "name": "recipient",
          "type": "address"
        },
        {
          "indexed": false,
          "internalType": "address",
          "name": "token",
          "type": "address"
        },
        {
          "indexed": false,
          "internalType": "bytes32",
          "name": "group",
          "type": "bytes32"
        },
        {
          "indexed": false,
          "internalType": "uint256",
          "name": "amount",
          "type": "uint256"
        }
      ],
      "name": "Claimed",
      "type": "event"
    },
    {
      "anonymous": false,
      "inputs": [
        {
          "indexed": false,
          "internalType": "uint64",
          "name": "version",
          "type": "uint64"
        }
      ],
      "name": "Initialized",
      "type": "event"
    },
    {
      "anonymous": false,
      "inputs": [
        {
          "indexed": false,
          "internalType": "string",
          "name": "projectId",
          "type": "string"
        }
      ],
      "name": "Initialized",
      "type": "event"
    },
    {
      "anonymous": false,
      "inputs": [
        {
          "indexed": true,
          "internalType": "address",
          "name": "previousOwner",
          "type": "address"
        },
        {
          "indexed": true,
          "internalType": "address",
          "name": "newOwner",
          "type": "address"
        }
      ],
      "name": "OwnershipTransferred",
      "type": "event"
    },
    {
      "anonymous": false,
      "inputs": [
        {
          "indexed": false,
          "internalType": "address",
          "name": "account",
          "type": "address"
        }
      ],
      "name": "Paused",
      "type": "event"
    },
    {
      "anonymous": false,
      "inputs": [],
      "name": "RootLocked",
      "type": "event"
    },
    {
      "anonymous": false,
      "inputs": [],
      "name": "RootSet",
      "type": "event"
    },
    {
      "anonymous": false,
      "inputs": [],
      "name": "TimeSet",
      "type": "event"
    },
    {
      "anonymous": false,
      "inputs": [
        {
          "indexed": false,
          "internalType": "address",
          "name": "token",
          "type": "address"
        }
      ],
      "name": "TokenSet",
      "type": "event"
    },
    {
      "anonymous": false,
      "inputs": [
        {
          "indexed": false,
          "internalType": "address",
          "name": "account",
          "type": "address"
        }
      ],
      "name": "Unpaused",
      "type": "event"
    },
    {
      "anonymous": false,
      "inputs": [
        {
          "indexed": true,
          "internalType": "address",
          "name": "implementation",
          "type": "address"
        }
      ],
      "name": "Upgraded",
      "type": "event"
    },
    {
      "inputs": [],
      "name": "UPGRADE_INTERFACE_VERSION",
      "outputs": [
        {
          "internalType": "string",
          "name": "",
          "type": "string"
        }
      ],
      "stateMutability": "view",
      "type": "function"
    },
    {
      "inputs": [
        {
          "internalType": "bytes32[]",
          "name": "proof",
          "type": "bytes32[]"
        },
        {
          "internalType": "bytes32",
          "name": "group",
          "type": "bytes32"
        },
        {
          "internalType": "bytes",
          "name": "data",
          "type": "bytes"
        }
      ],
      "name": "claim",
      "outputs": [],
      "stateMutability": "nonpayable",
      "type": "function"
    },
    {
      "inputs": [
        {
          "internalType": "bytes",
          "name": "data",
          "type": "bytes"
        }
      ],
      "name": "decodeLeafData",
      "outputs": [
        {
          "components": [
            {
              "internalType": "uint256",
              "name": "index",
              "type": "uint256"
            },
            {
              "internalType": "uint256",
              "name": "claimableTimestamp",
              "type": "uint256"
            },
            {
              "internalType": "uint256",
              "name": "claimableAmount",
              "type": "uint256"
            }
          ],
          "internalType": "struct TokenTableMerkleDistributorData",
          "name": "",
          "type": "tuple"
        }
      ],
      "stateMutability": "pure",
      "type": "function"
    },
    {
      "inputs": [
        {
          "internalType": "address",
          "name": "recipient",
          "type": "address"
        },
        {
          "internalType": "bytes32[]",
          "name": "proof",
          "type": "bytes32[]"
        },
        {
          "internalType": "bytes32",
          "name": "group",
          "type": "bytes32"
        },
        {
          "internalType": "bytes",
          "name": "data",
          "type": "bytes"
        }
      ],
      "name": "delegateClaim",
      "outputs": [],
      "stateMutability": "nonpayable",
      "type": "function"
    },
    {
      "inputs": [
        {
          "internalType": "address",
          "name": "user",
          "type": "address"
        },
        {
          "internalType": "bytes32",
          "name": "group",
          "type": "bytes32"
        },
        {
          "internalType": "bytes",
          "name": "data",
          "type": "bytes"
        }
      ],
      "name": "encodeLeaf",
      "outputs": [
        {
          "internalType": "bytes32",
          "name": "",
          "type": "bytes32"
        }
      ],
      "stateMutability": "view",
      "type": "function"
    },
    {
      "inputs": [],
      "name": "getClaimDelegate",
      "outputs": [
        {
          "internalType": "address",
          "name": "",
          "type": "address"
        }
      ],
      "stateMutability": "view",
      "type": "function"
    },
    {
      "inputs": [],
      "name": "getRoot",
      "outputs": [
        {
          "internalType": "bytes32",
          "name": "",
          "type": "bytes32"
        }
      ],
      "stateMutability": "view",
      "type": "function"
    },
    {
      "inputs": [],
      "name": "getRootLocked",
      "outputs": [
        {
          "internalType": "bool",
          "name": "",
          "type": "bool"
        }
      ],
      "stateMutability": "view",
      "type": "function"
    },
    {
      "inputs": [],
      "name": "getTime",
      "outputs": [
        {
          "internalType": "uint256",
          "name": "",
          "type": "uint256"
        },
        {
          "internalType": "uint256",
          "name": "",
          "type": "uint256"
        }
      ],
      "stateMutability": "view",
      "type": "function"
    },
    {
      "inputs": [],
      "name": "getToken",
      "outputs": [
        {
          "internalType": "address",
          "name": "",
          "type": "address"
        }
      ],
      "stateMutability": "view",
      "type": "function"
    },
    {
      "inputs": [
        {
          "internalType": "string",
          "name": "projectId",
          "type": "string"
        },
        {
          "internalType": "address",
          "name": "owner_",
          "type": "address"
        }
      ],
      "name": "initialize",
      "outputs": [],
      "stateMutability": "nonpayable",
      "type": "function"
    },
    {
      "inputs": [
        {
          "internalType": "bytes32",
          "name": "leaf",
          "type": "bytes32"
        }
      ],
      "name": "isLeafUsed",
      "outputs": [
        {
          "internalType": "bool",
          "name": "",
          "type": "bool"
        }
      ],
      "stateMutability": "view",
      "type": "function"
    },
    {
      "inputs": [],
      "name": "lockRoot",
      "outputs": [],
      "stateMutability": "nonpayable",
      "type": "function"
    },
    {
      "inputs": [],
      "name": "nuke",
      "outputs": [],
      "stateMutability": "nonpayable",
      "type": "function"
    },
    {
      "inputs": [],
      "name": "owner",
      "outputs": [
        {
          "internalType": "address",
          "name": "",
          "type": "address"
        }
      ],
      "stateMutability": "view",
      "type": "function"
    },
    {
      "inputs": [],
      "name": "paused",
      "outputs": [
        {
          "internalType": "bool",
          "name": "",
          "type": "bool"
        }
      ],
      "stateMutability": "view",
      "type": "function"
    },
    {
      "inputs": [],
      "name": "proxiableUUID",
      "outputs": [
        {
          "internalType": "bytes32",
          "name": "",
          "type": "bytes32"
        }
      ],
      "stateMutability": "view",
      "type": "function"
    },
    {
      "inputs": [],
      "name": "renounceOwnership",
      "outputs": [],
      "stateMutability": "nonpayable",
      "type": "function"
    },
    {
      "inputs": [
        {
          "internalType": "address",
          "name": "delegate",
          "type": "address"
        }
      ],
      "name": "setClaimDelegate",
      "outputs": [],
      "stateMutability": "nonpayable",
      "type": "function"
    },
    {
      "inputs": [
        {
          "internalType": "address",
          "name": "",
          "type": "address"
        }
      ],
      "name": "setHook",
      "outputs": [],
      "stateMutability": "nonpayable",
      "type": "function"
    },
    {
      "inputs": [
        {
          "internalType": "bool",
          "name": "shouldPause",
          "type": "bool"
        }
      ],
      "name": "setPause",
      "outputs": [],
      "stateMutability": "nonpayable",
      "type": "function"
    },
    {
      "inputs": [
        {
          "internalType": "bytes32",
          "name": "root",
          "type": "bytes32"
        },
        {
          "internalType": "uint256",
          "name": "deadline",
          "type": "uint256"
        }
      ],
      "name": "setRoot",
      "outputs": [],
      "stateMutability": "nonpayable",
      "type": "function"
    },
    {
      "inputs": [
        {
          "internalType": "uint256",
          "name": "startTime",
          "type": "uint256"
        },
        {
          "internalType": "uint256",
          "name": "endTime",
          "type": "uint256"
        }
      ],
      "name": "setStartEndTime",
      "outputs": [],
      "stateMutability": "nonpayable",
      "type": "function"
    },
    {
      "inputs": [
        {
          "internalType": "address",
          "name": "",
          "type": "address"
        }
      ],
      "name": "setToken",
      "outputs": [],
      "stateMutability": "nonpayable",
      "type": "function"
    },
    {
      "inputs": [
        {
          "internalType": "address",
          "name": "newOwner",
          "type": "address"
        }
      ],
      "name": "transferOwnership",
      "outputs": [],
      "stateMutability": "nonpayable",
      "type": "function"
    },
    {
      "inputs": [
        {
          "internalType": "address",
          "name": "newImplementation",
          "type": "address"
        },
        {
          "internalType": "bytes",
          "name": "data",
          "type": "bytes"
        }
      ],
      "name": "upgradeToAndCall",
      "outputs": [],
      "stateMutability": "payable",
      "type": "function"
    },
    {
      "inputs": [
        {
          "internalType": "bytes32[]",
          "name": "proof",
          "type": "bytes32[]"
        },
        {
          "internalType": "bytes32",
          "name": "leaf",
          "type": "bytes32"
        }
      ],
      "name": "verify",
      "outputs": [],
      "stateMutability": "view",
      "type": "function"
    },
    {
      "inputs": [],
      "name": "version",
      "outputs": [
        {
          "internalType": "string",
          "name": "",
          "type": "string"
        }
      ],
      "stateMutability": "pure",
      "type": "function"
    },
    {
      "inputs": [
        {
          "internalType": "bytes",
          "name": "",
          "type": "bytes"
        }
      ],
      "name": "withdraw",
      "outputs": [],
      "stateMutability": "nonpayable",
      "type": "function"
    },
    {
      "stateMutability": "payable",
      "type": "receive"
    }
  ],
  "transactionHash": "0xa1879cc60d4c60b28d13c247ed6e4d37145cec8b8eff04b4bd2a7fe3c7d903d9",
  "args": [],
  "numDeployments": 2,
  "solcInputHash": "c6765bc7339c8c0f64c72b305cfce0f4",
  "bytecode": "0x60a06040523060805234801561001457600080fd5b5046617a69146100265761002661002b565b6100dd565b7ff0c57e16840df040f15088dc2f81fe391c3923bec73e23a9662efc9c229c6a00805468010000000000000000900460ff161561007b5760405163f92ee8a960e01b815260040160405180910390fd5b80546001600160401b03908116146100da5780546001600160401b0319166001600160401b0390811782556040519081527fc7f505b2f371ae2175ee4913f4499e1f2633a7b5936321eed1cdaeb6115181d29060200160405180910390a15b50565b608051611c0061010660003960008181610d9a01528181610dc30152610f000152611c006000f3fe6080604052600436106101665760003560e01c806367ab16d6116100c757806367ab16d61461033a5780636e98be7f1461035a578063715018a61461037a5780637ab4339d1461038f5780638da5cb5b146103af578063972a2a62146103c4578063ad3cb1cc146103e4578063bc8fbbf814610415578063bedb86fb1461042a578063e0870b041461044a578063e16969571461046a578063edbe2a211461048a578063edd642e8146104aa578063f2fde38b146104bf578063fec0e0f1146104df57600080fd5b80630968f26414610172578063144fa6d71461019457806321df0da7146101b457806322e0ab16146101df57806324456781146101f457806332da1329146102095780633c8949b3146102295780633dfd3873146102495780634f1ef2861461026957806352d1902d1461027c57806354fd4d501461029f578063557ed1ba146102d65780635c975abb146103005780635ca1e1651461032557600080fd5b3661016d57005b600080fd5b34801561017e57600080fd5b5061019261018d3660046116a3565b610521565b005b3480156101a057600080fd5b506101926101af3660046116fb565b6105b7565b3480156101c057600080fd5b506101c96105d8565b6040516101d69190611716565b60405180910390f35b3480156101eb57600080fd5b506101c96105f6565b34801561020057600080fd5b50610192610614565b34801561021557600080fd5b5061019261022436600461172a565b610664565b34801561023557600080fd5b506101926102443660046116fb565b6106e2565b34801561025557600080fd5b506101926102643660046116fb565b61074f565b61019261027736600461174c565b610784565b34801561028857600080fd5b506102916107a3565b6040519081526020016101d6565b3480156102ab57600080fd5b50604080518082019091526005815264181718171960d91b60208201525b6040516101d691906117e9565b3480156102e257600080fd5b506102eb6107c0565b604080519283526020830191909152016101d6565b34801561030c57600080fd5b506103156107e2565b60405190151581526020016101d6565b34801561033157600080fd5b506102916107f7565b34801561034657600080fd5b50610192610355366004611888565b61080c565b34801561036657600080fd5b50610315610375366004611901565b6108a6565b34801561038657600080fd5b506101926108c4565b34801561039b57600080fd5b506101926103aa36600461191a565b6108d8565b3480156103bb57600080fd5b506101c9610a1a565b3480156103d057600080fd5b506101926103df36600461197b565b610a35565b3480156103f057600080fd5b506102c9604051806040016040528060058152602001640352e302e360dc1b81525081565b34801561042157600080fd5b50610192610a98565b34801561043657600080fd5b506101926104453660046119c6565b610af4565b34801561045657600080fd5b506101926104653660046119e8565b610b11565b34801561047657600080fd5b50610291610485366004611a71565b610bec565b34801561049657600080fd5b506101926104a536600461172a565b610c25565b3480156104b657600080fd5b50610315610cbd565b3480156104cb57600080fd5b506101926104da3660046116fb565b610cd5565b3480156104eb57600080fd5b506104ff6104fa3660046116a3565b610d10565b60408051825181526020808401519082015291810151908201526060016101d6565b610529610d4e565b600080610534610a1a565b6001600160a01b03164760405160006040518083038185875af1925050503d806000811461057e576040519150601f19603f3d011682016040523d82523d6000602084013e610583565b606091505b50915091508181906105b15760405162461bcd60e51b81526004016105a891906117e9565b60405180910390fd5b50505050565b6105bf610d4e565b604051639ba6061b60e01b815260040160405180910390fd5b6000806105e3610d6b565b600201546001600160a01b031692915050565b600080610601610d6b565b600301546001600160a01b031692915050565b61061c610d4e565b6000610626610d6b565b60068101805460ff191660011790556040519091507f4d59dcc3a0812525cd8c41f1023bc183efcbd84e7d9e1c352376126e6ef489fc90600090a150565b61066c610d4e565b610674610d6b565b6006015460ff161561069957604051630f78294960e11b815260040160405180910390fd5b60006106a3610d6b565b60048101849055600581018390556040519091507f34ad48f58870e0328df77bc8f5551c5bd1bb531e8d975bba89341e44a848774890600090a1505050565b6106ea610d4e565b806106f3610d6b565b60030180546001600160a01b0319166001600160a01b03929092169190911790556040517f9ca1bfcac82ee1107a485dd1336f6b73e33bdd7f01445200703a0a6d79f5d4e590610744908390611716565b60405180910390a150565b610757610d4e565b61075f610d6b565b6006015460ff16156105bf57604051630f78294960e11b815260040160405180910390fd5b61078c610d8f565b61079582610e34565b61079f8282610e3c565b5050565b60006107ad610ef5565b50600080516020611bab83398151915290565b60008060006107cd610d6b565b90508060040154816005015492509250509091565b6000806107ed610f3e565b5460ff1692915050565b600080610802610d6b565b6001015492915050565b610814610f62565b61081c610d6b565b6006015460ff16610840576040516313b311cb60e21b815260040160405180910390fd5b610848610d6b565b60040154421080610863575061085c610d6b565b6005015442115b156108815760405163018287d760e31b815260040160405180910390fd5b610889610f88565b610897338686868686610fbe565b61089f611129565b5050505050565b60006108b0610d6b565b600092835260205250604090205460ff1690565b6108cc610d4e565b6108d6600061113a565b565b60006108e2611196565b805490915060ff600160401b82041615906001600160401b03166000811580156109095750825b90506000826001600160401b031660011480156109255750303b155b905081158015610933575080155b156109515760405163f92ee8a960e01b815260040160405180910390fd5b845467ffffffffffffffff19166001178555831561097b57845460ff60401b1916600160401b1785555b610984866111ba565b61098c6111cb565b6109946111e8565b7f7bc2a48a4a566e237a12186f19d985b0f76afc9d5290601edac19876253670c2876040516109c391906117e9565b60405180910390a18315610a1157845460ff60401b19168555604051600181527fc7f505b2f371ae2175ee4913f4499e1f2633a7b5936321eed1cdaeb6115181d29060200160405180910390a15b50505050505050565b600080610a256111f0565b546001600160a01b031692915050565b6000610a3f610d6b565b9050610a4a826108a6565b15610a6857604051630725855960e11b815260040160405180910390fd5b6001810154610a7b908590859085611214565b6105b1576040516309bde33960e01b815260040160405180910390fd5b610aa061122c565b610aa8610d4e565b6000610ab2610d6b565b6000600182018190556002820180546001600160a01b031990811690915560038301805490911690556004820181905560058201559050610af16108c4565b50565b610afc610d4e565b80610b0957610af1611251565b610af161129d565b610b19610f62565b610b21610d6b565b600301546001600160a01b0316336001600160a01b031614610b5957335b60405163118cdaa760e01b81526004016105a89190611716565b610b61610d6b565b6006015460ff16610b85576040516313b311cb60e21b815260040160405180910390fd5b610b8d610d6b565b60040154421080610ba85750610ba1610d6b565b6005015442115b15610bc65760405163018287d760e31b815260040160405180910390fd5b610bce610f88565b610bdc868686868686610fbe565b610be4611129565b505050505050565b600030848484604051602001610c059493929190611ac7565b6040516020818303038152906040528051906020012090505b9392505050565b610c2d610d4e565b610c35610d6b565b6006015460ff1615610c5a57604051630f78294960e11b815260040160405180910390fd5b42811015610c7b576040516309ba674360e41b815260040160405180910390fd5b6000610c85610d6b565b600181018490556040519091507fbde4c8951ecef1c36132fda9f679f7489d81c352c686e6cb94eef24190bb33cb90600090a1505050565b600080610cc8610d6b565b6006015460ff1692915050565b610cdd610d4e565b6001600160a01b038116610d07576000604051631e4fbdf760e01b81526004016105a89190611716565b610af18161113a565b610d3460405180606001604052806000815260200160008152602001600081525090565b81806020019051810190610d489190611b04565b92915050565b33610d57610a1a565b6001600160a01b0316146108d65733610b3f565b7f452bdf2c9fe836ad357e55ed0859c19d2ac2a2c151d216523e3d37a8b9a03f0090565b306001600160a01b037f0000000000000000000000000000000000000000000000000000000000000000161480610e1657507f00000000000000000000000000000000000000000000000000000000000000006001600160a01b0316610e0a600080516020611bab833981519152546001600160a01b031690565b6001600160a01b031614155b156108d65760405163703e46dd60e11b815260040160405180910390fd5b610af1610d4e565b816001600160a01b03166352d1902d6040518163ffffffff1660e01b8152600401602060405180830381865afa925050508015610e96575060408051601f3d908101601f19168201909252610e9391810190611b5f565b60015b610eb55781604051634c9c8ce360e01b81526004016105a89190611716565b600080516020611bab8339815191528114610ee657604051632a87526960e21b8152600481018290526024016105a8565b610ef083836112e4565b505050565b306001600160a01b037f000000000000000000000000000000000000000000000000000000000000000016146108d65760405163703e46dd60e11b815260040160405180910390fd5b7fcd5ed15c6e187e77e9aee88184c21f4f2182ab5827cb3b7e07fbedcd63f0330090565b610f6a6107e2565b156108d65760405163d93c066560e01b815260040160405180910390fd5b6000610f9261133a565b805490915060011901610fb857604051633ee5aeb560e01b815260040160405180910390fd5b60029055565b6000611001878585858080601f016020809104026020016040519081016040528093929190818152602001838380828437600092019190915250610bec92505050565b905061100e868683610a35565b6001611018610d6b565b600083815260209182526040808220805460ff1916941515949094179093558251601f860183900483028101830190935284835291611071918690869081908401838280828437600092019190915250610d1092505050565b9050428160200151111561109857604051633000f64760e01b815260040160405180910390fd5b6110be886110a4610d6b565b6002015460408401516001600160a01b039091169061135e565b7f9780ca5401356db2895e17979114ec3dfd012f98c5e620049726a235a2a5d711886110e8610d6b565b6002015460408481015181516001600160a01b0394851681529390921660208401528201889052606082015260800160405180910390a15050505050505050565b600061113361133a565b6001905550565b60006111446111f0565b80546001600160a01b038481166001600160a01b031983168117845560405193945091169182907f8be0079c531659141344cd1fd0a4f28419497f9722a3daafe3b4186f6b6457e090600090a3505050565b7ff0c57e16840df040f15088dc2f81fe391c3923bec73e23a9662efc9c229c6a0090565b6111c26113d6565b610af1816113fb565b6111d36113d6565b60006111dd610f3e565b805460ff1916905550565b6111296113d6565b7f9016d09d72d40fdae2fd8ceac6b6234c7706214fd39c1cd1e609a0528c19930090565b600082611222868685611403565b1495945050505050565b6112346107e2565b6108d657604051638dfc202b60e01b815260040160405180910390fd5b61125961122c565b6000611263610f3e565b805460ff1916815590507f5db9ee0a495bf2e6ff9c91a7834c1ba4fdd244a5e8aa4e537bd38aeae4b073aa335b6040516107449190611716565b6112a5610f62565b60006112af610f3e565b805460ff1916600117815590507f62e78cea01bee320cd4e420270b5ea74000d11b0c9f74754ebdbfc544b05a2586112903390565b6112ed82611445565b6040516001600160a01b038316907fbc7cd75a20ee27fd9adebab32041f755214dbc6bffa90cc0225b39da2e5c2d3b90600090a280511561133257610ef082826114a1565b61079f611517565b7f9b779b17422d0df92223018b32b4d1fa46e071723d6817e2486d003becc55f0090565b600080846001600160a01b03168360405160006040518083038185875af1925050503d80600081146113ac576040519150601f19603f3d011682016040523d82523d6000602084013e6113b1565b606091505b5091509150818190610be45760405162461bcd60e51b81526004016105a891906117e9565b6113de611536565b6108d657604051631afcd79f60e31b815260040160405180910390fd5b610cdd6113d6565b600081815b8481101561143c576114328287878481811061142657611426611b78565b90506020020135611550565b9150600101611408565b50949350505050565b806001600160a01b03163b6000036114725780604051634c9c8ce360e01b81526004016105a89190611716565b600080516020611bab83398151915280546001600160a01b0319166001600160a01b0392909216919091179055565b6060600080846001600160a01b0316846040516114be9190611b8e565b600060405180830381855af49150503d80600081146114f9576040519150601f19603f3d011682016040523d82523d6000602084013e6114fe565b606091505b509150915061150e85838361157c565b95945050505050565b34156108d65760405163b398979f60e01b815260040160405180910390fd5b6000611540611196565b54600160401b900460ff16919050565b600081831061156c576000828152602084905260409020610c1e565b5060009182526020526040902090565b6060826115915761158c826115cf565b610c1e565b81511580156115a857506001600160a01b0384163b155b156115c85783604051639996b31560e01b81526004016105a89190611716565b5080610c1e565b8051156115df5780518082602001fd5b604051630a12f52160e11b815260040160405180910390fd5b634e487b7160e01b600052604160045260246000fd5b60006001600160401b0380841115611628576116286115f8565b604051601f8501601f19908116603f01168101908282118183101715611650576116506115f8565b8160405280935085815286868601111561166957600080fd5b858560208301376000602087830101525050509392505050565b600082601f83011261169457600080fd5b610c1e8383356020850161160e565b6000602082840312156116b557600080fd5b81356001600160401b038111156116cb57600080fd5b6116d784828501611683565b949350505050565b80356001600160a01b03811681146116f657600080fd5b919050565b60006020828403121561170d57600080fd5b610c1e826116df565b6001600160a01b0391909116815260200190565b6000806040838503121561173d57600080fd5b50508035926020909101359150565b6000806040838503121561175f57600080fd5b611768836116df565b915060208301356001600160401b0381111561178357600080fd5b61178f85828601611683565b9150509250929050565b60005b838110156117b457818101518382015260200161179c565b50506000910152565b600081518084526117d5816020860160208601611799565b601f01601f19169290920160200192915050565b602081526000610c1e60208301846117bd565b60008083601f84011261180e57600080fd5b5081356001600160401b0381111561182557600080fd5b6020830191508360208260051b850101111561184057600080fd5b9250929050565b60008083601f84011261185957600080fd5b5081356001600160401b0381111561187057600080fd5b60208301915083602082850101111561184057600080fd5b6000806000806000606086880312156118a057600080fd5b85356001600160401b03808211156118b757600080fd5b6118c389838a016117fc565b90975095506020880135945060408801359150808211156118e357600080fd5b506118f088828901611847565b969995985093965092949392505050565b60006020828403121561191357600080fd5b5035919050565b6000806040838503121561192d57600080fd5b82356001600160401b0381111561194357600080fd5b8301601f8101851361195457600080fd5b6119638582356020840161160e565b925050611972602084016116df565b90509250929050565b60008060006040848603121561199057600080fd5b83356001600160401b038111156119a657600080fd5b6119b2868287016117fc565b909790965060209590950135949350505050565b6000602082840312156119d857600080fd5b81358015158114610c1e57600080fd5b60008060008060008060808789031215611a0157600080fd5b611a0a876116df565b955060208701356001600160401b0380821115611a2657600080fd5b611a328a838b016117fc565b9097509550604089013594506060890135915080821115611a5257600080fd5b50611a5f89828a01611847565b979a9699509497509295939492505050565b600080600060608486031215611a8657600080fd5b611a8f846116df565b92506020840135915060408401356001600160401b03811115611ab157600080fd5b611abd86828701611683565b9150509250925092565b6001600160a01b0385811682528416602082015260408101839052608060608201819052600090611afa908301846117bd565b9695505050505050565b600060608284031215611b1657600080fd5b604051606081018181106001600160401b0382111715611b3857611b386115f8565b80604052508251815260208301516020820152604083015160408201528091505092915050565b600060208284031215611b7157600080fd5b5051919050565b634e487b7160e01b600052603260045260246000fd5b60008251611ba0818460208701611799565b919091019291505056fe360894a13ba1a3210667c828492db98dca3e2076cc3735a920a3ca505d382bbca2646970667358221220bce75909861627990149b9e8ca88b2a5b5e712ce7571a8e31d5f8f7abfbc1ba064736f6c63430008180033",
  "devdoc": {
    "errors": {
      "AddressEmptyCode(address)": [
        {
          "details": "There's no code at `target` (it is not a contract)."
        }
      ],
      "ERC1967InvalidImplementation(address)": [
        {
          "details": "The `implementation` of the proxy is invalid."
        }
      ],
      "ERC1967NonPayable()": [
        {
          "details": "An upgrade function sees `msg.value > 0` that may be lost."
        }
      ],
      "EnforcedPause()": [
        {
          "details": "The operation failed because the contract is paused."
        }
      ],
      "ExpectedPause()": [
        {
          "details": "The operation failed because the contract is not paused."
        }
      ],
      "FailedInnerCall()": [
        {
          "details": "A call to an address target failed. The target may have reverted."
        }
      ],
      "InvalidInitialization()": [
        {
          "details": "The contract is already initialized."
        }
      ],
      "NotInitializing()": [
        {
          "details": "The contract is not initializing."
        }
      ],
      "OwnableInvalidOwner(address)": [
        {
          "details": "The owner is not a valid owner account. (eg. `address(0)`)"
        }
      ],
      "OwnableUnauthorizedAccount(address)": [
        {
          "details": "The caller account is not authorized to perform an operation."
        }
      ],
      "ReentrancyGuardReentrantCall()": [
        {
          "details": "Unauthorized reentrant call."
        }
      ],
      "UUPSUnauthorizedCallContext()": [
        {
          "details": "The call is from an unauthorized context."
        }
      ],
      "UUPSUnsupportedProxiableUUID(bytes32)": [
        {
          "details": "The storage `slot` is unsupported as a UUID."
        }
      ]
    },
    "events": {
      "Initialized(uint64)": {
        "details": "Triggered when the contract has been initialized or reinitialized."
      },
      "Paused(address)": {
        "details": "Emitted when the pause is triggered by `account`."
      },
      "Unpaused(address)": {
        "details": "Emitted when the pause is lifted by `account`."
      },
      "Upgraded(address)": {
        "details": "Emitted when the implementation is upgraded."
      }
    },
    "kind": "dev",
    "methods": {
      "owner()": {
        "details": "Returns the address of the current owner."
      },
      "paused()": {
        "details": "Returns true if the contract is paused, and false otherwise."
      },
      "proxiableUUID()": {
        "details": "Implementation of the ERC1822 {proxiableUUID} function. This returns the storage slot used by the implementation. It is used to validate the implementation's compatibility when performing an upgrade. IMPORTANT: A proxy pointing at a proxiable contract should not be considered proxiable itself, because this risks bricking a proxy that upgrades to it, by delegating to itself until out of gas. Thus it is critical that this function revert if invoked through a proxy. This is guaranteed by the `notDelegated` modifier."
      },
      "renounceOwnership()": {
        "details": "Leaves the contract without owner. It will not be possible to call `onlyOwner` functions. Can only be called by the current owner. NOTE: Renouncing ownership will leave the contract without an owner, thereby disabling any functionality that is only available to the owner."
      },
      "transferOwnership(address)": {
        "details": "Transfers ownership of the contract to a new account (`newOwner`). Can only be called by the current owner."
      },
      "upgradeToAndCall(address,bytes)": {
        "custom:oz-upgrades-unsafe-allow-reachable": "delegatecall",
        "details": "Upgrade the implementation of the proxy to `newImplementation`, and subsequently execute the function call encoded in `data`. Calls {_authorizeUpgrade}. Emits an {Upgraded} event."
      }
    },
    "version": 1
  },
  "userdoc": {
    "kind": "user",
    "methods": {},
    "version": 1
  },
  "storageLayout": {
    "storage": [],
    "types": null
  }
}