{
  "address": "0x6021dECa39159C7B9D474883930dD9D01f33eD22",
  "abi": [
    {
      "inputs": [
        {
          "internalType": "address",
          "name": "target",
          "type": "address"
        }
      ],
      "name": "AddressEmptyCode",
      "type": "error"
    },
    {
      "inputs": [
        {
          "internalType": "address",
          "name": "account",
          "type": "address"
        }
      ],
      "name": "AddressInsufficientBalance",
      "type": "error"
    },
    {
      "inputs": [
        {
          "internalType": "address",
          "name": "implementation",
          "type": "address"
        }
      ],
      "name": "ERC1967InvalidImplementation",
      "type": "error"
    },
    {
      "inputs": [],
      "name": "ERC1967NonPayable",
      "type": "error"
    },
    {
      "inputs": [],
      "name": "FailedInnerCall",
      "type": "error"
    },
    {
      "inputs": [],
      "name": "IncorrectFees",
      "type": "error"
    },
    {
      "inputs": [],
      "name": "InvalidInitialization",
      "type": "error"
    },
    {
      "inputs": [],
      "name": "InvalidProof",
      "type": "error"
    },
    {
      "inputs": [],
      "name": "LeafUsed",
      "type": "error"
    },
    {
      "inputs": [],
      "name": "NotInitializing",
      "type": "error"
    },
    {
      "inputs": [],
      "name": "OutsideClaimableTimeRange",
      "type": "error"
    },
    {
      "inputs": [
        {
          "internalType": "address",
          "name": "owner",
          "type": "address"
        }
      ],
      "name": "OwnableInvalidOwner",
      "type": "error"
    },
    {
      "inputs": [
        {
          "internalType": "address",
          "name": "account",
          "type": "address"
        }
      ],
      "name": "OwnableUnauthorizedAccount",
      "type": "error"
    },
    {
      "inputs": [],
      "name": "ReentrancyGuardReentrantCall",
      "type": "error"
    },
    {
      "inputs": [
        {
          "internalType": "address",
          "name": "token",
          "type": "address"
        }
      ],
      "name": "SafeERC20FailedOperation",
      "type": "error"
    },
    {
      "inputs": [],
      "name": "TimeInactive",
      "type": "error"
    },
    {
      "inputs": [],
      "name": "UUPSUnauthorizedCallContext",
      "type": "error"
    },
    {
      "inputs": [
        {
          "internalType": "bytes32",
          "name": "slot",
          "type": "bytes32"
        }
      ],
      "name": "UUPSUnsupportedProxiableUUID",
      "type": "error"
    },
    {
      "inputs": [],
      "name": "UnsupportedOperation",
      "type": "error"
    },
    {
      "anonymous": false,
      "inputs": [
        {
          "indexed": false,
          "internalType": "address",
          "name": "delegate",
          "type": "address"
        }
      ],
      "name": "ClaimDelegateSet",
      "type": "event"
    },
    {
      "anonymous": false,
      "inputs": [
        {
          "indexed": false,
          "internalType": "address",
          "name": "recipient",
          "type": "address"
        },
        {
          "indexed": false,
          "internalType": "bytes32",
          "name": "group",
          "type": "bytes32"
        },
        {
          "indexed": false,
          "internalType": "bytes",
          "name": "data",
          "type": "bytes"
        }
      ],
      "name": "Claimed",
      "type": "event"
    },
    {
      "anonymous": false,
      "inputs": [
        {
          "indexed": false,
          "internalType": "uint64",
          "name": "version",
          "type": "uint64"
        }
      ],
      "name": "Initialized",
      "type": "event"
    },
    {
      "anonymous": false,
      "inputs": [
        {
          "indexed": false,
          "internalType": "string",
          "name": "projectId",
          "type": "string"
        }
      ],
      "name": "Initialized",
      "type": "event"
    },
    {
      "anonymous": false,
      "inputs": [
        {
          "indexed": true,
          "internalType": "address",
          "name": "previousOwner",
          "type": "address"
        },
        {
          "indexed": true,
          "internalType": "address",
          "name": "newOwner",
          "type": "address"
        }
      ],
      "name": "OwnershipTransferred",
      "type": "event"
    },
    {
      "anonymous": false,
      "inputs": [
        {
          "indexed": true,
          "internalType": "address",
          "name": "implementation",
          "type": "address"
        }
      ],
      "name": "Upgraded",
      "type": "event"
    },
    {
      "inputs": [],
      "name": "UPGRADE_INTERFACE_VERSION",
      "outputs": [
        {
          "internalType": "string",
          "name": "",
          "type": "string"
        }
      ],
      "stateMutability": "view",
      "type": "function"
    },
    {
      "inputs": [
        {
          "internalType": "address[]",
          "name": "recipients",
          "type": "address[]"
        },
        {
          "internalType": "bytes32[][]",
          "name": "proofs",
          "type": "bytes32[][]"
        },
        {
          "internalType": "bytes32[]",
          "name": "groups",
          "type": "bytes32[]"
        },
        {
          "internalType": "bytes[]",
          "name": "datas",
          "type": "bytes[]"
        }
      ],
      "name": "batchDelegateClaim",
      "outputs": [],
      "stateMutability": "payable",
      "type": "function"
    },
    {
      "inputs": [
        {
          "internalType": "bytes32[]",
          "name": "proof",
          "type": "bytes32[]"
        },
        {
          "internalType": "bytes32",
          "name": "group",
          "type": "bytes32"
        },
        {
          "internalType": "bytes",
          "name": "data",
          "type": "bytes"
        }
      ],
      "name": "claim",
      "outputs": [],
      "stateMutability": "payable",
      "type": "function"
    },
    {
      "inputs": [
        {
          "internalType": "bytes",
          "name": "data",
          "type": "bytes"
        }
      ],
      "name": "decodeLeafData",
      "outputs": [
        {
          "components": [
            {
              "internalType": "uint256",
              "name": "index",
              "type": "uint256"
            },
            {
              "internalType": "uint256",
              "name": "claimableTimestamp",
              "type": "uint256"
            },
            {
              "internalType": "uint256",
              "name": "claimableAmount",
              "type": "uint256"
            }
          ],
          "internalType": "struct TokenTableMerkleDistributorData",
          "name": "",
          "type": "tuple"
        }
      ],
      "stateMutability": "pure",
      "type": "function"
    },
    {
      "inputs": [
        {
          "internalType": "address",
          "name": "recipient",
          "type": "address"
        },
        {
          "internalType": "bytes32[]",
          "name": "proof",
          "type": "bytes32[]"
        },
        {
          "internalType": "bytes32",
          "name": "group",
          "type": "bytes32"
        },
        {
          "internalType": "bytes",
          "name": "data",
          "type": "bytes"
        }
      ],
      "name": "delegateClaim",
      "outputs": [],
      "stateMutability": "payable",
      "type": "function"
    },
    {
      "inputs": [
        {
          "internalType": "address",
          "name": "user",
          "type": "address"
        },
        {
          "internalType": "bytes32",
          "name": "group",
          "type": "bytes32"
        },
        {
          "internalType": "bytes",
          "name": "data",
          "type": "bytes"
        }
      ],
      "name": "encodeLeaf",
      "outputs": [
        {
          "internalType": "bytes32",
          "name": "",
          "type": "bytes32"
        }
      ],
      "stateMutability": "view",
      "type": "function"
    },
    {
      "inputs": [],
      "name": "getClaimDelegate",
      "outputs": [
        {
          "internalType": "address",
          "name": "",
          "type": "address"
        }
      ],
      "stateMutability": "view",
      "type": "function"
    },
    {
      "inputs": [],
      "name": "getDeployer",
      "outputs": [
        {
          "internalType": "address",
          "name": "",
          "type": "address"
        }
      ],
      "stateMutability": "view",
      "type": "function"
    },
    {
      "inputs": [],
      "name": "getRoot",
      "outputs": [
        {
          "internalType": "bytes32",
          "name": "",
          "type": "bytes32"
        }
      ],
      "stateMutability": "view",
      "type": "function"
    },
    {
      "inputs": [],
      "name": "getTime",
      "outputs": [
        {
          "internalType": "uint256",
          "name": "",
          "type": "uint256"
        },
        {
          "internalType": "uint256",
          "name": "",
          "type": "uint256"
        }
      ],
      "stateMutability": "view",
      "type": "function"
    },
    {
      "inputs": [],
      "name": "getToken",
      "outputs": [
        {
          "internalType": "address",
          "name": "",
          "type": "address"
        }
      ],
      "stateMutability": "view",
      "type": "function"
    },
    {
      "inputs": [
        {
          "internalType": "string",
          "name": "projectId",
          "type": "string"
        },
        {
          "internalType": "address",
          "name": "owner_",
          "type": "address"
        }
      ],
      "name": "initialize",
      "outputs": [],
      "stateMutability": "nonpayable",
      "type": "function"
    },
    {
      "inputs": [
        {
          "internalType": "bytes32",
          "name": "leaf",
          "type": "bytes32"
        }
      ],
      "name": "isLeafUsed",
      "outputs": [
        {
          "internalType": "bool",
          "name": "",
          "type": "bool"
        }
      ],
      "stateMutability": "view",
      "type": "function"
    },
    {
      "inputs": [],
      "name": "owner",
      "outputs": [
        {
          "internalType": "address",
          "name": "",
          "type": "address"
        }
      ],
      "stateMutability": "view",
      "type": "function"
    },
    {
      "inputs": [],
      "name": "proxiableUUID",
      "outputs": [
        {
          "internalType": "bytes32",
          "name": "",
          "type": "bytes32"
        }
      ],
      "stateMutability": "view",
      "type": "function"
    },
    {
      "inputs": [],
      "name": "renounceOwnership",
      "outputs": [],
      "stateMutability": "nonpayable",
      "type": "function"
    },
    {
      "inputs": [
        {
          "internalType": "address",
          "name": "token",
          "type": "address"
        },
        {
          "internalType": "uint256",
          "name": "startTime",
          "type": "uint256"
        },
        {
          "internalType": "uint256",
          "name": "endTime",
          "type": "uint256"
        },
        {
          "internalType": "bytes32",
          "name": "root",
          "type": "bytes32"
        }
      ],
      "name": "setBaseParams",
      "outputs": [],
      "stateMutability": "nonpayable",
      "type": "function"
    },
    {
      "inputs": [
        {
          "internalType": "address",
          "name": "delegate",
          "type": "address"
        }
      ],
      "name": "setClaimDelegate",
      "outputs": [],
      "stateMutability": "nonpayable",
      "type": "function"
    },
    {
      "inputs": [
        {
          "internalType": "address",
          "name": "newOwner",
          "type": "address"
        }
      ],
      "name": "transferOwnership",
      "outputs": [],
      "stateMutability": "nonpayable",
      "type": "function"
    },
    {
      "inputs": [
        {
          "internalType": "address",
          "name": "newImplementation",
          "type": "address"
        },
        {
          "internalType": "bytes",
          "name": "data",
          "type": "bytes"
        }
      ],
      "name": "upgradeToAndCall",
      "outputs": [],
      "stateMutability": "payable",
      "type": "function"
    },
    {
      "inputs": [
        {
          "internalType": "bytes32[]",
          "name": "proof",
          "type": "bytes32[]"
        },
        {
          "internalType": "bytes32",
          "name": "leaf",
          "type": "bytes32"
        }
      ],
      "name": "verify",
      "outputs": [],
      "stateMutability": "view",
      "type": "function"
    },
    {
      "inputs": [],
      "name": "version",
      "outputs": [
        {
          "internalType": "string",
          "name": "",
          "type": "string"
        }
      ],
      "stateMutability": "pure",
      "type": "function"
    },
    {
      "inputs": [
        {
          "internalType": "bytes",
          "name": "",
          "type": "bytes"
        }
      ],
      "name": "withdraw",
      "outputs": [],
      "stateMutability": "nonpayable",
      "type": "function"
    }
  ],
  "transactionHash": "0x96ce36254010d4e8aef95d2febc71ca70c2c2517fc50ed1fb8a60eed13ee6229",
  "args": [],
  "numDeployments": 2,
  "solcInputHash": "b3eea87db7db3c801720347e6b3bd1d5",
  "bytecode": "0x60a06040523060805234801561001457600080fd5b5046617a69146100265761002661002b565b6100dd565b7ff0c57e16840df040f15088dc2f81fe391c3923bec73e23a9662efc9c229c6a00805468010000000000000000900460ff161561007b5760405163f92ee8a960e01b815260040160405180910390fd5b80546001600160401b03908116146100da5780546001600160401b0319166001600160401b0390811782556040519081527fc7f505b2f371ae2175ee4913f4499e1f2633a7b5936321eed1cdaeb6115181d29060200160405180910390a15b50565b608051611ed36200010760003960008181610c3b01528181610c640152610d9c0152611ed36000f3fe6080604052600436106101205760003560e01c80636e98be7f116100a65780636e98be7f14610279578063715018a6146102a957806372630531146102be5780637ab4339d146102d35780638da5cb5b146102f3578063972a2a6214610308578063a8b5129914610328578063ad3cb1cc14610348578063e0870b0414610379578063e16969571461038c578063f2fde38b146103ac578063fec0e0f1146103cc57600080fd5b80630968f2641461012557806321df0da71461014757806322e0ab16146101725780633c8949b3146101875780634f1ef286146101a757806352d1902d146101ba57806354fd4d50146101dd578063557ed1ba146102145780635ca1e1651461023e57806367ab16d6146102535780636b4bd9e014610266575b600080fd5b34801561013157600080fd5b50610145610140366004611781565b61040e565b005b34801561015357600080fd5b5061015c6104bc565b60405161016991906117bd565b60405180910390f35b34801561017e57600080fd5b5061015c6104d8565b34801561019357600080fd5b506101456101a23660046117e6565b6104f4565b6101456101b5366004611803565b610561565b3480156101c657600080fd5b506101cf61057c565b604051908152602001610169565b3480156101e957600080fd5b506040805180820190915260058152640302e332e360dc1b60208201525b60405161016991906118a2565b34801561022057600080fd5b50610229610599565b60408051928352602083019190915201610169565b34801561024a57600080fd5b506101cf6105bc565b610145610261366004611941565b6105cf565b6101456102743660046119ba565b610686565b34801561028557600080fd5b50610299610294366004611a7d565b61072f565b6040519015158152602001610169565b3480156102b557600080fd5b5061014561074d565b3480156102ca57600080fd5b5061015c610761565b3480156102df57600080fd5b506101456102ee366004611a96565b61077d565b3480156102ff57600080fd5b5061015c6108e2565b34801561031457600080fd5b50610145610323366004611afb565b6108fd565b34801561033457600080fd5b50610145610343366004611b46565b61095f565b34801561035457600080fd5b50610207604051806040016040528060058152602001640352e302e360dc1b81525081565b610145610387366004611b81565b6109de565b34801561039857600080fd5b506101cf6103a7366004611c0c565b610ae0565b3480156103b857600080fd5b506101456103c73660046117e6565b610b1b565b3480156103d857600080fd5b506103ec6103e7366004611781565b610b59565b6040805182518152602080840151908201529181015190820152606001610169565b610416610b97565b6000610420610bb4565b600301546001600160a01b031690506104b861043a6108e2565b6040516370a0823160e01b81526001600160a01b038416906370a08231906104669030906004016117bd565b602060405180830381865afa158015610483573d6000803e3d6000fd5b505050506040513d601f19601f820116820180604052508101906104a79190611c64565b6001600160a01b0384169190610bd8565b5050565b60006104c6610bb4565b600301546001600160a01b0316919050565b60006104e2610bb4565b600401546001600160a01b0316919050565b6104fc610b97565b80610505610bb4565b60040180546001600160a01b0319166001600160a01b03929092169190911790556040517f9ca1bfcac82ee1107a485dd1336f6b73e33bdd7f01445200703a0a6d79f5d4e5906105569083906117bd565b60405180910390a150565b610569610c30565b61057282610cd5565b6104b88282610cdd565b6000610586610d91565b50600080516020611e7e83398151915290565b6000806105a4610bb4565b600501546105b0610bb4565b60060154915091509091565b60006105c6610bb4565b60010154905090565b6105d7610bb4565b600501544210806105f257506105eb610bb4565b6006015442115b156106105760405163018287d760e31b815260040160405180910390fd5b610618610dda565b6000610628338787878787610e10565b905061063933878787878787610f3a565b7f597a291bf8dedc18fe24ac7ca5fc092b5108111be5a87280cf758b19396941d13385858560405161066e9493929190611c7d565b60405180910390a15061067f610f44565b5050505050565b60005b878110156107245761071c8989838181106106a6576106a6611cc5565b90506020020160208101906106bb91906117e6565b8888848181106106cd576106cd611cc5565b90506020028101906106df9190611cdb565b8888868181106106f1576106f1611cc5565b9050602002013587878781811061070a5761070a611cc5565b90506020028101906103879190611d24565b600101610689565b505050505050505050565b6000610739610bb4565b600092835260205250604090205460ff1690565b610755610b97565b61075f6000610f55565b565b600061076b610bb4565b600201546001600160a01b0316919050565b6000610787610fb1565b805490915060ff600160401b82041615906001600160401b03166000811580156107ae5750825b90506000826001600160401b031660011480156107ca5750303b155b9050811580156107d8575080155b156107f65760405163f92ee8a960e01b815260040160405180910390fd5b845467ffffffffffffffff19166001178555831561082057845460ff60401b1916600160401b1785555b61082986610fd5565b610831610fe6565b3361083a610bb4565b60020180546001600160a01b0319166001600160a01b03929092169190911790556040517f7bc2a48a4a566e237a12186f19d985b0f76afc9d5290601edac19876253670c29061088b9089906118a2565b60405180910390a183156108d957845460ff60401b19168555604051600181527fc7f505b2f371ae2175ee4913f4499e1f2633a7b5936321eed1cdaeb6115181d29060200160405180910390a15b50505050505050565b6000806108ed610fee565b546001600160a01b031692915050565b6109068161072f565b1561092457604051630725855960e11b815260040160405180910390fd5b61093d61092f610bb4565b600101548490849084611012565b61095a576040516309bde33960e01b815260040160405180910390fd5b505050565b610967610b97565b81831061098757604051639ba6061b60e01b815260040160405180910390fd5b83610990610bb4565b60030180546001600160a01b0319166001600160a01b0392909216919091179055826109ba610bb4565b60050155816109c7610bb4565b60060155806109d4610bb4565b6001015550505050565b6109e6610bb4565b600401546001600160a01b0316336001600160a01b031614610a2757335b60405163118cdaa760e01b8152600401610a1e91906117bd565b60405180910390fd5b610a2f610bb4565b60050154421080610a4a5750610a43610bb4565b6006015442115b15610a685760405163018287d760e31b815260040160405180910390fd5b610a70610dda565b6000610a80878787878787610e10565b9050610a92338888888888888861102a565b7f597a291bf8dedc18fe24ac7ca5fc092b5108111be5a87280cf758b19396941d187858585604051610ac79493929190611c7d565b60405180910390a150610ad8610f44565b505050505050565b60004630858585604051602001610afb959493929190611d6a565b6040516020818303038152906040528051906020012090505b9392505050565b610b23610b97565b6001600160a01b038116610b4d576000604051631e4fbdf760e01b8152600401610a1e91906117bd565b610b5681610f55565b50565b610b7d60405180606001604052806000815260200160008152602001600081525090565b81806020019051810190610b919190611dae565b92915050565b33610ba06108e2565b6001600160a01b03161461075f5733610a04565b7f452bdf2c9fe836ad357e55ed0859c19d2ac2a2c151d216523e3d37a8b9a03f0090565b61095a83846001600160a01b031663a9059cbb8585604051602401610bfe929190611e09565b604051602081830303815290604052915060e01b6020820180516001600160e01b03838183161783525050505061103e565b306001600160a01b037f0000000000000000000000000000000000000000000000000000000000000000161480610cb757507f00000000000000000000000000000000000000000000000000000000000000006001600160a01b0316610cab600080516020611e7e833981519152546001600160a01b031690565b6001600160a01b031614155b1561075f5760405163703e46dd60e11b815260040160405180910390fd5b610b56610b97565b816001600160a01b03166352d1902d6040518163ffffffff1660e01b8152600401602060405180830381865afa925050508015610d37575060408051601f3d908101601f19168201909252610d3491810190611c64565b60015b610d565781604051634c9c8ce360e01b8152600401610a1e91906117bd565b600080516020611e7e8339815191528114610d8757604051632a87526960e21b815260048101829052602401610a1e565b61095a8383611098565b306001600160a01b037f0000000000000000000000000000000000000000000000000000000000000000161461075f5760405163703e46dd60e11b815260040160405180910390fd5b6000610de46110ee565b805490915060011901610e0a57604051633ee5aeb560e01b815260040160405180910390fd5b60029055565b600080610e54888686868080601f016020809104026020016040519081016040528093929190818152602001838380828437600092019190915250610ae092505050565b9050610e618787836108fd565b6001610e6b610bb4565b600083815260209182526040808220805460ff1916941515949094179093558251601f870183900483028101830190935285835291610ec4918790879081908401838280828437600092019190915250610b5992505050565b90504281602001511180610ee65750610edb610bb4565b600501548160200151105b15610f045760405163f5d66d0560e01b815260040160405180910390fd5b610f2a89610f10610bb4565b6003015460408401516001600160a01b0390911690611112565b6040015198975050505050505050565b6108d98782611126565b6000610f4e6110ee565b6001905550565b6000610f5f610fee565b80546001600160a01b038481166001600160a01b031983168117845560405193945091169182907f8be0079c531659141344cd1fd0a4f28419497f9722a3daafe3b4186f6b6457e090600090a3505050565b7ff0c57e16840df040f15088dc2f81fe391c3923bec73e23a9662efc9c229c6a0090565b610fdd6113c7565b610b56816113ec565b610f446113c7565b7f9016d09d72d40fdae2fd8ceac6b6234c7706214fd39c1cd1e609a0528c19930090565b6000826110208686856113f4565b1495945050505050565b6110348882611126565b5050505050505050565b60006110536001600160a01b03841683611436565b905080516000141580156110785750808060200190518101906110769190611e22565b155b1561095a5782604051635274afe760e01b8152600401610a1e91906117bd565b6110a182611444565b6040516001600160a01b038316907fbc7cd75a20ee27fd9adebab32041f755214dbc6bffa90cc0225b39da2e5c2d3b90600090a28051156110e65761095a82826114a0565b6104b8611516565b7f9b779b17422d0df92223018b32b4d1fa46e071723d6817e2486d003becc55f0090565b61095a6001600160a01b0383168483610bd8565b6000611130610bb4565b600281015460405163cb5cd39160e01b81529192506001600160a01b031690600090829063cb5cd391906111689030906004016117bd565b602060405180830381865afa158015611185573d6000803e3d6000fd5b505050506040513d601f19601f820116820180604052508101906111a99190611e44565b90506001600160a01b0381166111d857341561067f57604051631669aa8360e01b815260040160405180910390fd5b6040516313b7ae0d60e21b81526000906001600160a01b03831690634edeb834906112099030908990600401611e09565b602060405180830381865afa158015611226573d6000803e3d6000fd5b505050506040513d601f19601f8201168201806040525081019061124a9190611c64565b905080600003611273573415610ad857604051631669aa8360e01b815260040160405180910390fd5b6040516316605a0d60e01b81526000906001600160a01b038516906316605a0d906112a29030906004016117bd565b602060405180830381865afa1580156112bf573d6000803e3d6000fd5b505050506040513d601f19601f820116820180604052508101906112e39190611e44565b90506001600160a01b0381166113935781341461131357604051631669aa8360e01b815260040160405180910390fd5b600080846001600160a01b03168460405160006040518083038185875af1925050503d8060008114611361576040519150601f19603f3d011682016040523d82523d6000602084013e611366565b606091505b509150915081819061138b5760405162461bcd60e51b8152600401610a1e91906118a2565b5050506108d9565b34156113b257604051631669aa8360e01b815260040160405180910390fd5b6108d96001600160a01b038216888585611535565b6113cf611574565b61075f57604051631afcd79f60e31b815260040160405180910390fd5b610b236113c7565b600081815b8481101561142d576114238287878481811061141757611417611cc5565b9050602002013561158e565b91506001016113f9565b50949350505050565b6060610b14838360006115bd565b806001600160a01b03163b6000036114715780604051634c9c8ce360e01b8152600401610a1e91906117bd565b600080516020611e7e83398151915280546001600160a01b0319166001600160a01b0392909216919091179055565b6060600080846001600160a01b0316846040516114bd9190611e61565b600060405180830381855af49150503d80600081146114f8576040519150601f19603f3d011682016040523d82523d6000602084013e6114fd565b606091505b509150915061150d85838361165a565b95945050505050565b341561075f5760405163b398979f60e01b815260040160405180910390fd5b6040516001600160a01b03848116602483015283811660448301526064820183905261156e9186918216906323b872dd90608401610bfe565b50505050565b600061157e610fb1565b54600160401b900460ff16919050565b60008183106115aa576000828152602084905260409020610b14565b6000838152602083905260409020610b14565b6060814710156115e2573060405163cd78605960e01b8152600401610a1e91906117bd565b600080856001600160a01b031684866040516115fe9190611e61565b60006040518083038185875af1925050503d806000811461163b576040519150601f19603f3d011682016040523d82523d6000602084013e611640565b606091505b509150915061165086838361165a565b9695505050505050565b60608261166f5761166a826116ad565b610b14565b815115801561168657506001600160a01b0384163b155b156116a65783604051639996b31560e01b8152600401610a1e91906117bd565b5080610b14565b8051156116bd5780518082602001fd5b604051630a12f52160e11b815260040160405180910390fd5b634e487b7160e01b600052604160045260246000fd5b60006001600160401b0380841115611706576117066116d6565b604051601f8501601f19908116603f0116810190828211818310171561172e5761172e6116d6565b8160405280935085815286868601111561174757600080fd5b858560208301376000602087830101525050509392505050565b600082601f83011261177257600080fd5b610b14838335602085016116ec565b60006020828403121561179357600080fd5b81356001600160401b038111156117a957600080fd5b6117b584828501611761565b949350505050565b6001600160a01b0391909116815260200190565b6001600160a01b0381168114610b5657600080fd5b6000602082840312156117f857600080fd5b8135610b14816117d1565b6000806040838503121561181657600080fd5b8235611821816117d1565b915060208301356001600160401b0381111561183c57600080fd5b61184885828601611761565b9150509250929050565b60005b8381101561186d578181015183820152602001611855565b50506000910152565b6000815180845261188e816020860160208601611852565b601f01601f19169290920160200192915050565b602081526000610b146020830184611876565b60008083601f8401126118c757600080fd5b5081356001600160401b038111156118de57600080fd5b6020830191508360208260051b85010111156118f957600080fd5b9250929050565b60008083601f84011261191257600080fd5b5081356001600160401b0381111561192957600080fd5b6020830191508360208285010111156118f957600080fd5b60008060008060006060868803121561195957600080fd5b85356001600160401b038082111561197057600080fd5b61197c89838a016118b5565b909750955060208801359450604088013591508082111561199c57600080fd5b506119a988828901611900565b969995985093965092949392505050565b6000806000806000806000806080898b0312156119d657600080fd5b88356001600160401b03808211156119ed57600080fd5b6119f98c838d016118b5565b909a50985060208b0135915080821115611a1257600080fd5b611a1e8c838d016118b5565b909850965060408b0135915080821115611a3757600080fd5b611a438c838d016118b5565b909650945060608b0135915080821115611a5c57600080fd5b50611a698b828c016118b5565b999c989b5096995094979396929594505050565b600060208284031215611a8f57600080fd5b5035919050565b60008060408385031215611aa957600080fd5b82356001600160401b03811115611abf57600080fd5b8301601f81018513611ad057600080fd5b611adf858235602084016116ec565b9250506020830135611af0816117d1565b809150509250929050565b600080600060408486031215611b1057600080fd5b83356001600160401b03811115611b2657600080fd5b611b32868287016118b5565b909790965060209590950135949350505050565b60008060008060808587031215611b5c57600080fd5b8435611b67816117d1565b966020860135965060408601359560600135945092505050565b60008060008060008060808789031215611b9a57600080fd5b8635611ba5816117d1565b955060208701356001600160401b0380821115611bc157600080fd5b611bcd8a838b016118b5565b9097509550604089013594506060890135915080821115611bed57600080fd5b50611bfa89828a01611900565b979a9699509497509295939492505050565b600080600060608486031215611c2157600080fd5b8335611c2c816117d1565b92506020840135915060408401356001600160401b03811115611c4e57600080fd5b611c5a86828701611761565b9150509250925092565b600060208284031215611c7657600080fd5b5051919050565b6001600160a01b0385168152602081018490526060604082018190528101829052818360808301376000818301608090810191909152601f909201601f191601019392505050565b634e487b7160e01b600052603260045260246000fd5b6000808335601e19843603018112611cf257600080fd5b8301803591506001600160401b03821115611d0c57600080fd5b6020019150600581901b36038213156118f957600080fd5b6000808335601e19843603018112611d3b57600080fd5b8301803591506001600160401b03821115611d5557600080fd5b6020019150368190038213156118f957600080fd5b8581526001600160a01b038581166020830152841660408201526060810183905260a060808201819052600090611da390830184611876565b979650505050505050565b600060608284031215611dc057600080fd5b604051606081018181106001600160401b0382111715611de257611de26116d6565b80604052508251815260208301516020820152604083015160408201528091505092915050565b6001600160a01b03929092168252602082015260400190565b600060208284031215611e3457600080fd5b81518015158114610b1457600080fd5b600060208284031215611e5657600080fd5b8151610b14816117d1565b60008251611e73818460208701611852565b919091019291505056fe360894a13ba1a3210667c828492db98dca3e2076cc3735a920a3ca505d382bbca2646970667358221220c979f31218db4ee35b7f8c5543bdaeffdfc103f7cbb13506fbb06a7863458c2f64736f6c63430008180033",
  "devdoc": {
    "errors": {
      "AddressEmptyCode(address)": [
        {
          "details": "There's no code at `target` (it is not a contract)."
        }
      ],
      "AddressInsufficientBalance(address)": [
        {
          "details": "The ETH balance of the account is not enough to perform the operation."
        }
      ],
      "ERC1967InvalidImplementation(address)": [
        {
          "details": "The `implementation` of the proxy is invalid."
        }
      ],
      "ERC1967NonPayable()": [
        {
          "details": "An upgrade function sees `msg.value > 0` that may be lost."
        }
      ],
      "FailedInnerCall()": [
        {
          "details": "A call to an address target failed. The target may have reverted."
        }
      ],
      "InvalidInitialization()": [
        {
          "details": "The contract is already initialized."
        }
      ],
      "NotInitializing()": [
        {
          "details": "The contract is not initializing."
        }
      ],
      "OwnableInvalidOwner(address)": [
        {
          "details": "The owner is not a valid owner account. (eg. `address(0)`)"
        }
      ],
      "OwnableUnauthorizedAccount(address)": [
        {
          "details": "The caller account is not authorized to perform an operation."
        }
      ],
      "ReentrancyGuardReentrantCall()": [
        {
          "details": "Unauthorized reentrant call."
        }
      ],
      "SafeERC20FailedOperation(address)": [
        {
          "details": "An operation with an ERC20 token failed."
        }
      ],
      "UUPSUnauthorizedCallContext()": [
        {
          "details": "The call is from an unauthorized context."
        }
      ],
      "UUPSUnsupportedProxiableUUID(bytes32)": [
        {
          "details": "The storage `slot` is unsupported as a UUID."
        }
      ]
    },
    "events": {
      "Initialized(uint64)": {
        "details": "Triggered when the contract has been initialized or reinitialized."
      },
      "Upgraded(address)": {
        "details": "Emitted when the implementation is upgraded."
      }
    },
    "kind": "dev",
    "methods": {
      "owner()": {
        "details": "Returns the address of the current owner."
      },
      "proxiableUUID()": {
        "details": "Implementation of the ERC1822 {proxiableUUID} function. This returns the storage slot used by the implementation. It is used to validate the implementation's compatibility when performing an upgrade. IMPORTANT: A proxy pointing at a proxiable contract should not be considered proxiable itself, because this risks bricking a proxy that upgrades to it, by delegating to itself until out of gas. Thus it is critical that this function revert if invoked through a proxy. This is guaranteed by the `notDelegated` modifier."
      },
      "renounceOwnership()": {
        "details": "Leaves the contract without owner. It will not be possible to call `onlyOwner` functions. Can only be called by the current owner. NOTE: Renouncing ownership will leave the contract without an owner, thereby disabling any functionality that is only available to the owner."
      },
      "transferOwnership(address)": {
        "details": "Transfers ownership of the contract to a new account (`newOwner`). Can only be called by the current owner."
      },
      "upgradeToAndCall(address,bytes)": {
        "custom:oz-upgrades-unsafe-allow-reachable": "delegatecall",
        "details": "Upgrade the implementation of the proxy to `newImplementation`, and subsequently execute the function call encoded in `data`. Calls {_authorizeUpgrade}. Emits an {Upgraded} event."
      }
    },
    "version": 1
  },
  "userdoc": {
    "kind": "user",
    "methods": {},
    "version": 1
  },
  "storageLayout": {
    "storage": [],
    "types": null
  }
}